:020000041000EA
:1000000000B5324B212058609868022188439860DF
:10001000D860186158612E4B002199600221596106
:100020000121F02299502B49196001219960352056
:1000300000F044F80222904214D00621196600F024
:1000400034F8196E01211966002018661A6600F04E
:100050002CF8196E196E196E052000F02FF8012189
:100060000842F9D1002199601B49196000215960AB
:100070001A491B48016001219960EB211966A021F2
:10008000196600F012F800219960164914480160C1
:100090000121996001BC002800D000471248134993
:1000A000086003C880F30888084703B5996A0420EC
:1000B0000142FBD001200142F8D103BD02B5186610
:1000C0001866FFF7F2FF186E186E02BD00000240BE
:1000D000000000180000070000035F00212200005C
:1000E000F4000018222000A00001001008ED00E03C
:1000F00000000000000000000000000074B24E7A12
:1001000000200420F7010010C3010010C5010010F9
:10011000C1010010C1010010C1010010C101001097
:10012000C1010010C1010010C1010010C701001081
:10013000C1010010C1010010C9010010CB01001065
:10014000CD010010CD010010CD010010CD01001037
:10015000CD010010CD010010CD010010CD01001027
:10016000CD010010CD010010CD010010CD01001017
:10017000CD010010CD010010CD010010CD01001007
:10018000CD010010CD010010CD010010CD010010F7
:10019000CD010010CD010010CD010010CD010010E7
:1001A000CD010010CD010010CD010010CD010010D7
:1001B000CD010010CD010010CD010010CD010010C7
:1001C00000BE00BE00BE00BE00BE00BEEFF3058054
:1001D000103800BEF2EB8871C8390B10343A0B109E
:1001E0003402001090A31AE700201F49086006C8D7
:1001F00081F3088810471D48006800282FD10DA4FE
:100200000ECC002902D000F012F8F9E71849194A7B
:10021000002000E001C19142FCD1174988471749ED
:1002200088471749884700BEFDE701C901C29A42C5
:10023000FBD37047343A0B10C00000209C3D0020D7
:1002400010770B10000004200000042010770B1022
:10025000001004200010042000000000704709482E
:1002600034F0DCFF0047000008ED00E0000000D0A3
:10027000A83D002068600120FD3803100503001030
:10028000313A03105756000006005250ABB360538A
:1002900058B8051006005250861C030268B80510B5
:1002A000060052505422A29D74B805100500525009
:1002B000DE65F46810770B10F8B5C046044B10B536
:1002C000002B03D00349044800E000BF10BDC04626
:1002D00000000000043E0120A085051010B539F093
:1002E0001DFC182036F062F8040000F06BFD2000C1
:1002F00000F072FD200000F029FE10BD10B556F090
:10030000B3FE0000882010B5400036F04FF804001E
:1003100000F090F8200000F045FB044839F0D2FBD3
:10032000200000F0DFF8002010BDC046DD02001004
:10033000F0B5C646742300B59046CB5A028A040035
:100340000D009A420AD0428A9A4207D0214B1A687D
:100350005B688261C36180BCB846F0BDA669E7698D
:1003600033003B4312D01C4B5A6A9742F3D89B6A26
:10037000B3421FD37423228AEB5A9A421DD0628A59
:100380009A42E8D1154803F085FFE4E732F0A8FC73
:100390000027134E802336184F411B069F4202D37D
:1003A0000126104F76420C4BA661E7615A6A9742CC
:1003B000D1D8DCE79742DDD1CDE7404643425841F2
:1003C000094B40421840094B9C46604403F062FFD1
:1003D000C1E7C046F0E7051000400540E1E437F70B
:1003E00000093D00FFFFFF7FD81DA2A3CD66D543C6
:1003F000044B10B51868002803D09968091A35F025
:10040000E1FF10BDD085002070B5084D280055F0E3
:1004100075F9074C002801D1200070BD200002F0C2
:1004200099FD280055F086F9F6E7C04648410020BE
:10043000148B0020F8B500220023040005210CC015
:1004400000F00CFE0023E422A3502200E4325360AB
:100450009360F022A3541F4B1F4F18685968230064
:100460001E4DF03310329860D960A5509861D96163
:10047000380055F043F91A4E00281CD1DC2035F025
:1004800095FF0500052100F0E9FD3000290003F08B
:10049000DBFB380055F032F9002813D1DC2035F0B1
:1004A00085FF0500052100F0D9FD3000290003F08B
:1004B000CFFB2000F8BD300002F04CFD380055F0B5
:1004C00039F9DBE7300002F045FD380055F032F92C
:1004D000E4E7C046F0E70510484100200C020C019B
:1004E000148B0020F0B5DE46454657464E46E0B533
:1004F00089B00700FFF788FF03F0A8FB0600FFF7AD
:1005000083FF03F0A7FB8046FFF77EFF03F09AFB13
:10051000BF4DC04C002879D0F0239846BE4BB8445C
:100520000493BE4B9946BE4B9B46F0239A46280047
:1005300055F0E4F8002831D1200002F03DFD484696
:1005400055F0DCF8002837D1484655F0D7F8002898
:100550003AD1584602F0C0FC300001F0A7FA5346E9
:10056000FB5C002B34D17433F35A002B36D1434655
:100570009868D96803000B4337D0AA4B5A6A914256
:10058000D5D89B6A834201D29142D0D001235246F2
:100590002800BB5455F0B2F80028CDD0200002F05E
:1005A000D9FC280055F0C6F8200002F005FD4846A9
:1005B00055F0A4F80028C7D0484655F0BBF8484687
:1005C00055F09CF80028C4D0484655F0B3F8C0E771
:1005D000012231004046FFF7ABFEA8E74146049BED
:1005E0001A685B688A60CB60A1E732F079FB002370
:1005F00032228018594180231B06994202D30120E0
:100600008949404243469860D960B6E7874B99468E
:10061000874B9B46E4239C46BC4463460193434678
:100620007233069372239C46B44463460593F023C9
:100630009846B844C246784B04937E4B07932800F3
:1006400055F05CF8002871D1200002F0B5FC484656
:1006500055F054F8002877D1584603F027FF3B683F
:1006600002937B68984600F0F5FC884500D982E04B
:100670007DD0300001F01AFA300001F0DBFA3000D2
:1006800001F020FCF023FB5C002B6AD17423F35AA9
:10069000002B00D189E05146049B1A685B688A6090
:1006A000CB60019B00219846180002F0EDFA300063
:1006B00000F098FF4046002102F0FEFA1022059952
:1006C000069835F06DFE300002F07EFA804630006C
:1006D00001F0D4FD0100404650F0BAFE280055F06C
:1006E0000DF800284CD1200003F0B6FA280055F090
:1006F00005F8002852D1200003F0B6FA50F094FE1D
:100700000121019802F0D8FA01200021404239F07D
:1007100065FE00F09FFC6422002380185941386078
:100720007960280054F0EAFF00288DD0200002F004
:1007300011FC280054F0FEFF200002F03DFC48466A
:1007400054F0DCFF002887D000235A460798136036
:1007500053609360136156F08FFC484654F0EAFFF3
:100760007AE7002231005046FFF7E2FD99E7029B4D
:10077000834200D87DE73220002132F0B1F95EE7F4
:10078000200002F0E7FB280054F0D4FF200003F023
:1007900063FA280054F0B2FF0028ACD0200002F029
:1007A000D9FB280054F0C6FFA5E753469A68DB68DA
:1007B000110002920393194311D01A49039B486A0E
:1007C0009C46834200D96CE78B6A029A934202D21C
:1007D000844500D165E7F0230122FA5461E732F045
:1007E0007FFA3222002312184B4111001A00802395
:1007F000029103921B069A4204D301220A4B5242F1
:10080000029203930299039A53469960DA60D4E7FF
:1008100048410020148B0020F0E705103C410020E7
:10082000C885002000400540FFFFFF7F40410020B9
:10083000D0850020F1030010F0B5C64600B50400D5
:1008400003F03CFD524B984200D18AE0514B984254
:1008500052D0002801D000204FE04F4F380054F014
:100860004DFF4E4B9846002856D1404603F0EEF916
:100870000500380054F042FF00285BD1404603F0E9
:10088000E9F90600E434280001F010F90021200005
:1008900002F0FAF9280000F0A5FE0021200002F085
:1008A0000BFA3000290010227230723135F078FDD9
:1008B000380054F023FF002835D14246384B8020C1
:1008C000D25C7423E95A40000840012A18D0032A58
:1008D00037D0023AD2B200283FD08B0547D44B071D
:1008E0004DD40B074DD4CB074DD48B074DD40620E8
:1008F000090602D4002000E0022080BCB846F0BD0A
:1009000080239B000B4000282DD0002BA3D0722306
:10091000EB5C1A40501CF0E7180002F01BFB38009B
:1009200054F008FFA1E7404602F014FB380054F0F1
:1009300001FFC2E7404602F00DFB380054F0FAFE1A
:100940009CE7002800D186E7890500D483E772235D
:100950000120EB5C18404000CFE7012ABFD98B058E
:10096000BDD50120C9E71800431E9841C5E7722391
:10097000EB5CDB07C0D4012AB1D90120BDE703201D
:10098000BBE70720B9E70420B7E70520B5E7C04675
:10099000A58477E7E1E437F748410020148B002075
:1009A0008E180000F0B5D6464F464646C0B5C84F33
:1009B000050084B0380054F0A1FEC64E002800D0D7
:1009C00042E1C54BF35C002B00D031E1C34BF35C3B
:1009D000002B00D02CE1380054F090FE002800D00D
:1009E00057E1300003F032F9814600F08DFB42F010
:1009F00081FD602035F0DAFC80466022002135F070
:100A0000C9FC4246B64B2C0013604346B54AE43459
:100A10009A81DA811A825A8241460022200002F02D
:100A2000DBF94C2035F0C2FC80464C22002135F029
:100A3000B1FC4246AC4B414613602000012202F05B
:100A4000CBF90C2035F0B2FC80460C22002135F0A9
:100A5000A1FC4246A54B414613602000002202F053
:100A600001FA082035F0A2FC002398464360A04B11
:100A7000010003600022200002F0F4F9242035F088
:100A800095FC82462422002135F084FC5246994B85
:100A9000514613602000002202F0E4F90C2035F0EA
:100AA00085FC434643600372934B010003600022C0
:100AB000200002F0D7F90C2035F078FC4346436063
:100AC00003728E4B010003600022200002F0CAF97D
:100AD000242035F06BFC80462422002135F05AFC9E
:100AE0004246874B414613602000002202F0BAF9CB
:100AF0000C2035F05BFC80460C22002135F04AFCCE
:100B00004246804B414613602000002202F0AAF9C1
:100B1000202035F04BFC80462022002135F03AFCA5
:100B20004246794B414613602000002202F09AF9B8
:100B3000542035F03BFC80465422002135F02AFC3D
:100B40004246724B414613602000002202F08AF9AF
:100B5000302035F02BFC80463022002135F01AFC85
:100B600042466B4B414613602000002202F07AF9A6
:100B7000242035F01BFC80462422002135F00AFC9D
:100B80004246644B414613602000002202F06AF99D
:100B90000C2035F00BFC80460C22002135F0FAFBCE
:100BA00042465D4B414613602000012202F05AF993
:100BB000142035F0FBFB80461422002135F0EAFBBF
:100BC0004246564B414613602000002202F04AF98B
:100BD000282035F0EBFB80462822002135F0DAFB97
:100BE00042464F4B200013604146002202F03AF982
:100BF0002800FFF721FE012834D02CDD022860D028
:100C0000033804280ED84A46D023D358454A145CEA
:100C10005A78A24203D048465C7001F013F82000D5
:100C200050F0F2FB04B0E0BCBA46B146A846F0BDB5
:100C30003D4803AB02AA01A930F09AFD00282FD14C
:100C40003A48394932F0F8FE300002F083F93800B2
:100C500054F070FDB5E60028E4D1D0234A46D358BD
:100C60005C78DCE7380054F049FD002822D10121EE
:100C7000300002F0D9FFFF2050F0C6FB2C4C2000C2
:100C800054F03CFD002811D100212A4802F012F94D
:100C9000C8E7300002F05EF9380054F04BFDA0E6E2
:100CA000039A0299019830F027FD94E6200054F051
:100CB00041FDE9E7300002F04DF9380054F03AFD0B
:100CC000D5E71D4834F0AAFA002103000800984730
:100CD00048410020148B0020751700007D1800008B
:100CE000E0D20510FF7F000030D90510E4CF0510D9
:100CF0008CD00510B4D1051008D20510E0D0051035
:100D000048D305109CD3051098D90510ECD90510CF
:100D100094DA0510E8DA0510E0D7051040DA05107E
:100D20003CDB051094C10510C0D40100A08505105E
:100D30003C410020C88500205542000030B5164ACD
:100D40008FB01368591C1160002B07D10121134A81
:100D50004942116053609360D3601361104B1C686B
:100D6000621C1A60002C01D00FB030BD38220D4932
:100D7000684635F015FB0C4D38202C606C60AC607B
:100D800035F014FB04003822383469462860AC6022
:100D900035F006FB6C60E7E7344100201C41002081
:100DA0003041002074C2051024B90020044B10B556
:100DB0001868002803D09968091A35F003FB10BDA4
:100DC000D08500200022002302604360002383605E
:100DD000C36003617047C0460830F8B505008E2037
:100DE000C00035F0E3FA8E2204000021D20035F075
:100DF000D1FA4A4B00262360012323738A23DB00A8
:100E0000E218083BE2500833E65421000322280090
:100E100002F028F8E620800035F0C8FAE622040047
:100E20000021920035F0B6FA3D4B20002360CA2322
:100E30000A225B00C530E250FF3049F061FBDF233E
:100E40009B00E654E31821005E601E6103229B6054
:100E5000DB60280002F006F8102035F0A7FA314BCD
:100E6000314F8660067303600400380054F046FC7E
:100E70002E4E00283FD12E4B2100F35C032223711C
:100E8000280001F0EFFF0C2035F090FA04000C224E
:100E9000002135F07FFA274B210023600322280030
:100EA00001F0E0FF142035F081FA04001422002143
:100EB00035F070FA204B210023600322280001F056
:100EC000D1FFB42035F072FA0400B422002135F0CD
:100ED00061FA1A4B210028002360032201F0C2FFAF
:100EE000174D280054F00AFC164C00280AD12000A7
:100EF00003F05EFAF8BD300002F02CF8380054F030
:100F000019FCB8E70023104823606360A3602361E5
:100F100056F0B2F8280054F00DFCE8E7ECD40510C8
:100F20007CD7051080D8051048410020148B002084
:100F3000FD0C000038D0051034D10510DCD80510A8
:100F400040410020D0850020AD0D0010F8B5CE4600
:100F500047461A4D804680B5280054F0CFFB184C08
:100F6000002824D1200002F06DFE4346642630CBD9
:100F70000027994600F06EF88D4206D943461C685A
:100F80005D6800F067F88D42F8D88D4201D1844247
:100F9000F4D80321484601F08FFE00F05BF8801979
:100FA0007941434604000D001C605D60E2E72000CB
:100FB00001F0D0FF280054F0BDFBD3E748410020EA
:100FC000148B002030B5164A8FB01368591C11607D
:100FD000002B07D10121134A4942116053609360ED
:100FE000D3601361104B1C68621C1A60002C01D086
:100FF0000FB030BD38220D49684635F0D1F90C4D9F
:1010000038202C606C60AC6035F0D0F904003822D8
:10101000383469462860AC6035F0C2F96C60E7E7A7
:10102000344100201C41002030410020ACC205109A
:1010300024B9002010B531F053FE002905D0FA2262
:101040000023920034F082F910BDFA21890034F0B7
:101050003FF9F9E710B531F043FE10BD70B500233C
:10106000040060250020224AC9B2A0702171A0713D
:10107000E26022612380A360A382615562216054F3
:101080000E31A266E2666366635202316054A26763
:10109000E2678022174D63672800A35254F02EFBAD
:1010A00000280FD1D023144E2800E65054F026FB20
:1010B000002815D1D422114B2000A350D8230022A0
:1010C000E25470BD0E4801F045FF280054F032FB99
:1010D000D023094E2800E65054F010FB0028E9D038
:1010E000084BF01801F036FF280054F023FBE1E72D
:1010F000FF7FFF7F484100200C9000202C900020B3
:10110000148B002008FBFFFFF0B5D6464F4646463D
:10111000E04C0500C0B5200054F0F0FADE4B9A46D2
:10112000002800D0E0E1504602F034FC0700200027
:1011300054F0E4FA002800D0FFE10C2035F036F935
:101140007A681D2A00D8CBE1FF2303700023436097
:10115000012484230481E8500C2035F027F9FB6832
:101160001D2B00D8B9E1FF23002403700223038163
:1011700086334460E8500C2035F018F97A691D2A4E
:1011800000D8A6E1FF2303700023436004230381FA
:101190008833E8500C2035F009F9FA691D2A00D887
:1011A00093E1FF2303700023436008230381883306
:1011B000E8500C2035F0FAF87A6A1D2A00D880E150
:1011C000FF23037000234360012494230481E8502B
:1011D0000C2035F0EBF8FB6A1D2B00D86EE1FF23E5
:1011E000002403700223038196334460E8500C20EE
:1011F00035F0DCF87A6B1D2A00D85BE1FF23037021
:1012000000234360042303819833E8500C2035F019
:10121000CDF8FA6B1D2A00D848E1FF2303700023A4
:101220004360082303819833E8500C2035F0BEF862
:101230007A6C1D2A00D828E1FF2303700023436045
:10124000102303819433E8500C2035F0AFF8FA6C8A
:101250001D2A00D815E1FF230370002343602023DB
:1012600003818833E8500C2035F0A0F87A6D1D2AF0
:1012700000D802E1FF230370002343604023038171
:101280006C33E8500C2035F091F8FA6D1D2A00D827
:10129000EFE0FF230370002343608023038130339A
:1012A000E8500C2035F082F87A6E1D2A00D8DCE078
:1012B000FF2303700023436080235B0003814C3BCA
:1012C000E8500C2035F072F8FA6E1D2A00D8C8E0FC
:1012D000FF2303700023436080239B000381493B6D
:1012E000FF3BE8500C2035F061F87A6F1D2A00D8DA
:1012F000B3E0FF230370002343608023DB000381FE
:10130000BC23E8500C2035F051F8FA6F1D2A00D8A4
:101310009FE0FF2303700023436080231B010381B0
:10132000C023E8500C2035F041F88423FA581D2AD8
:1013300000D88AE07B3303700023436080235B0185
:101340000381C423E8500C2035F030F88C23FA5880
:101350001D2A00D875E07333037000234360802397
:10136000C8249B0103812851482035F023F88822A6
:10137000AA58842342608C22AA58EB58826090229B
:10138000AA580360C2609422AA58CC26026198220F
:10139000AA5842619C22AA588261A022AA58C2611E
:1013A000A422AA580262A822AA584262AC22AA58D1
:1013B0008262B022AA58C262B422AA580263B8223A
:1013C000AA584263BC22AA588263C022AA58C263A8
:1013D000C422AA5802642A5900244264CC22A8508C
:1013E000CB3A9146D0221206904601E0AB591B59E8
:1013F0001878FF280CD030F045FBAB5942461B59FA
:10140000012118784B4683409362002230F0E2FAC3
:101410000434482CEAD1942438591D2800D87FE0A0
:1014200052461E4D1E4B2800D65C54F067F91D4CE9
:10143000002860D11C4BE650E0BCBA46B146A84635
:10144000F0BD01230270934088E7012302709340AE
:1014500073E70123027093405EE70123027093401B
:101460004AE701230270934035E70123027093405D
:1014700021E70123027093400EE70123027093409D
:10148000FBE6012302709340E8E6012302709340DB
:10149000D5E6C04648410020148B0020444100207E
:1014A00011050000E48500202C05000001230270D6
:1014B0009340B5E6012302709340A2E69C4003707E
:1014C00090E60123027093407DE601230270934071
:1014D0006AE601230270934057E69C40037045E69C
:1014E00001230270934032E6180001F033FD200022
:1014F00054F020F917E6802200270021A01C52009A
:10150000276034F047FF8522201D0021D200FF30E4
:1015100034F040FF0C4B2800E75054F00BF989E7FA
:1015200030F0B0FA01233859D0228340120693627A
:101530000121002230F04EFA72E7504601F00AFD18
:10154000200054F0F7F8F8E52C050000F0B5D64679
:101550004F464646214BC0B5050018009A460F007D
:1015600054F0CCF81E4B9946002825D1484602F08D
:1015700011FA00248046CC26AB591B591878FF2855
:1015800001D030F09DFA0434482CF5D19423424622
:10159000D0581D281ED9504654F0B0F8002812D15A
:1015A0003900484602F090FA2800FFF7ADFDE0BC94
:1015B000BA46B146A846F0BD180001F0CBFC504633
:1015C00054F0B8F8D2E7484601F0C4FC504654F055
:1015D000B1F8E5E730F074FADDE7C0464841002095
:1015E000148B0020F0B50400C6462100102200B57F
:1015F0006230723134F0D4FED023E258D379002B1C
:1016000058D17233E35C517A002916D084211D0031
:1016100060580431615806890989007A0D40A8464E
:1016200005001F00C9B20D43AB4337423FD14146CD
:10163000002900D00343722163545079042855D007
:1016400003211940022900D11EE1032900D1C2E083
:1016500001295DD105210126BB4F8C4604310C25A3
:101660003E702B40082B5DD00C2B00D147E1042BA2
:1016700000D026E10321B54B197061467223E15475
:10168000D37B002B00D06FE1D378012B00D181E018
:10169000022B5BD06378002B01D1AD4BA367A378FD
:1016A000002B01D1AA4BE36780BCB846F0BD0B43C9
:1016B000DBB2BCE77223E05C1A330600E158043366
:1016C000E3580D7A1B890F891E40D9B22B00B4460E
:1016D00006000B439E433300384200D00B43614663
:1016E000002900D02B43722163548CE75078411EAF
:1016F000012902D919000428C0D10320184002286A
:1017000000D1C0E0032800D198E10128A2D0012037
:10171000042100260C258C4F8C463E7004312B4052
:10172000082BA1D10420894B18707223E154D37B7C
:10173000002BA9D00520304009230B40012800D1FF
:101740009DE1092B00D14DE10D001AE16378002BDA
:1017500000D187E00C230B40042B00D189E0083B2B
:101760005A4253417B4ADB0394467C226344A35292
:1017700003230B40012B00D183E0023B5A4253412B
:10178000744ADB03944663447E22A35272230022F0
:10179000E25489E7A378002B55D00C230B40042B8F
:1017A00057D0083B5A4253416A4ADB039446782299
:1017B0006344A35203230B40012B51D0023B5A42F6
:1017C0005341644ADB03944663447A22A352722352
:1017D0000022E25468E70C251D4000285AD15A4BDC
:1017E00001301870082D00D137E10C2D00D122E115
:1017F0000126042D65D1554B197072230521E15442
:10180000D37B002B00D13FE7534B1B78032B04D134
:10181000012101230D00514803700A2129400A29A2
:1018200000D0B5E04E4B1B78042B00D1D1E0FD2158
:10183000042329402B40042B02D10320494B18706C
:101840007223E15420E7424BE3670C230B40042B47
:10185000A7D100237822A35203230B40012BADD143
:101860000023B2E73A4BA3670C230B40042B00D0B4
:1018700075E700237C22A35203230B40012B00D0E9
:101880007BE7002380E70120062102268C462E4FAD
:101890000431E4E62C4F022800D0B6E03978002964
:1018A00000D1CDE0012900D1DEE0052309219C46CD
:1018B0000126082D00D135E70C2D32D0042D00D1A2
:1018C000D8E60021214B19707223E654D37B3100F6
:1018D000002B00D1D8E605233340012B6BD1092022
:1018E0001D4930400B703100012803D11B490B709A
:1018F0000A213140022900D199E031004EE002284E
:101900000FD0032800D0A0E0104BD57B187800281A
:101910000CD0032877D07223E154002D00D1B3E618
:1019200008E70A4BD57B187800286AD131000020DF
:1019300018707223E154D37B002B00D1A4E6052359
:101940000E000B40C9E7C0464960012048600120F5
:10195000FF7FFF7FFF7F00004C6001204D60012072
:101960004B6001204A60012005200840052800D076
:1019700088E0484B1B78032B2ED0FE2508230D4012
:101980000B40082B00D048E70421434B197044E773
:10199000082972D1414B04391970290006230B40E4
:1019A000062B0DD13E4B1B78022B0FD0FB23194089
:1019B0007223E15468E60A213140022950D03100F7
:1019C000022B00D037E73648037039E79943C9B294
:1019D00036E7ED312940E1E7F833194009230B40A0
:1019E000092B35D12C4B1B78012B07D0F72602236E
:1019F0000E401940022900D07FE718E09943CDB28C
:101A00000BE7032887D0614638E6032818D13E78D3
:101A1000002E15D0012E2CD006230A219C4602262A
:101A2000082D00D17EE60C2D00D047E76CE71B4B5C
:101A300019703100B2E701211A4B78E701201A4FE3
:101A4000042100268C46043109E63100154B6EE76F
:101A5000012B00D1DEE60D0093E70921012661E6A6
:101A60000E4B19700223AEE7062302269C460A217C
:101A70001FE7052309219C46D2E72E003AE7054BD4
:101A80001870ABE7042800D056E6024B01381870F6
:101A9000A4E7C0464C6001204D6001204B6001204E
:101AA0004A600120486001204960012070B55E4E07
:101AB0000400300053F022FE5C4D002800D0ABE063
:101AC000280001F067FF9422D0238158933A8A407E
:101AD0001B065D68AA43511E8A417621D2036252D9
:101AE0008422A058EB4341680022A94301D0082278
:101AF0008256882161584868184202D009890A43F1
:101B000052B28C2161584868184202D009890A43B0
:101B100052B2902161584868184202D009890A439C
:101B200052B2722162549422A1580022486818428D
:101B300001D008228A5E982161584868184202D074
:101B400009890A4312B29C2161584868184202D0A0
:101B500009890A4312B2A02161584868184202D08C
:101B600009890A4312B2A42161584868184202D078
:101B700009890A4312B2A82161584868184202D064
:101B800009890A4312B2AC2161584868184202D050
:101B900009890A4312B2B02161584868184202D03C
:101BA00009890A4312B2B42161584868184202D028
:101BB00009890A4312B2B82161584868184202D014
:101BC00009890A4312B2BC2161584868184202D000
:101BD00009890A4312B2C02161584868184202D0EC
:101BE00009890A4312B2C42161584868184202D0D8
:101BF00009890A4312B2C82161584868184202D0C4
:101C00000B891A4312B27423E252094B0022A367D4
:101C1000E3678023E25270BD280001F09BF9300099
:101C200053F088FD4CE7C04648410020148B00204B
:101C3000FF7FFF7F010010B5723104302EF0C6FF28
:101C400010BDC04670B5094D280053F057FD084C33
:101C5000002803D1200001F0A5F970BD200001F09B
:101C600079F9280053F066FDF4E7C04648410020AA
:101C7000148B0020F8B505000C00162918D88D4AE1
:101C80008B00D3589F46D826835D122B10D0042199
:101C9000FFF75CFCAB5D122B0AD0874F874E3800F4
:101CA00053F02CFD002800D0E8E0300001F07AF974
:101CB000D823EC54F8BDD02274238258C15A5278EC
:101CC000042A00D1E1E0802252000A43C252EFE729
:101CD00074228023815A1B010B438352E8E774224C
:101CE0008023815ADB000B438352E1E7D826835DD2
:101CF000112BDDD00321FFF729FCAB5D112BCCD1DB
:101D0000D6E7D826835D102BD2D00221FFF71EFC28
:101D1000AB5D102BC1D1CBE7D826835D0F2BC7D08D
:101D20000121FFF713FCAB5D0F2BB6D1C0E7D82321
:101D3000C35C0E2BBCD0604F380053F0DFFC5F4E0D
:101D4000002800D0AEE001215D4AB35C4B40B354A3
:101D5000D823EB5C0E2BA2D1AAE7D823C35C0D2BB2
:101D6000A6D0D0230121C258534FD37B534E4B40B2
:101D7000D37394E7D0230122C3585A71D823C35C8C
:101D8000072B00D089E793E7D0230022C3585A716C
:101D9000D823C35C062B00D07FE789E7D0237422C9
:101DA000C358815A5878042874D0802374225B0069
:101DB0000B43AB527CE774228023815A5B010B43B7
:101DC000835275E7D0230222C358DA70D823C35C4C
:101DD000032B00D061E76BE7D0230122C358DA70F0
:101DE000D823C35C022B00D057E761E7D023002241
:101DF000C358DA70D823C35C012B00D04DE757E7F6
:101E0000002002F047FA53E7D0230322C3585A7147
:101E1000D823C35C0B2B00D03FE749E7D823C35C32
:101E20000A2B00D144E7D0230121C258224F537A14
:101E3000224E4B40537232E7D823C35C092B00D1AA
:101E400036E7D0230121C2581B4FD3791B4E4B409C
:101E5000D37124E7D0230222C3585A71D823C35C1C
:101E6000082B00D019E723E7D0230422C3585A7166
:101E7000D823C35C0C2B00D00FE719E7300001F02A
:101E800069F8380053F056FC0FE7802292010A43AC
:101E9000C2520DE7DB7A002B87D080239B010B43D6
:101EA000AB5205E7300001F055F8380053F042FC22
:101EB00049E7C046E4C2051048410020148B0020C9
:101EC000FD0F0000F8B5DE4657464E464546D02386
:101ED000E0B5C3585B7B002B00D0CEE0D433C358B1
:101EE000597B9C689D69002909D074261A8AB346DB
:101EF0001700865B3740BC46974200D1DDE02922BF
:101F0000995C5C6A5D6B002908D07426B346865BD9
:101F10009A8D37001740BA4200D1E7E04522995C1C
:101F20001C6C9A6C1D6D002907D0742796B2B446BC
:101F3000C65B3240944500D1F2E06122995CDC6DD1
:101F40005A6EDD6E002907D0742796B2B446C65B80
:101F50003240944500D1FDE07D22995C0B329C6FAC
:101F60009E58002909D0083A9D5A0C3A875A94463F
:101F70003A002A40954200D1FEE094229C58053256
:101F8000995C0B329E58002909D0083A9D5A283A8C
:101F9000875A94463A002A40954200D101E1B02286
:101FA0009C580532995C0B329E58002909D0083A9A
:101FB0009D5A443A875A94463A002A40954200D1A5
:101FC00001E1CC229C580532995C0B329E580029C5
:101FD00009D0083A9D5A603A875A94463A002A40F6
:101FE000954200D101E1E8229C580532995C0B3200
:101FF0009E58002909D0083A9D5A7C3A875A94463F
:102000003A002A40954200D101E1822252009C58B8
:102010000A22FF32995C0B329E58002909D0083AF7
:102020009D5A983A875A94463A002A40954200D1E0
:10203000FFE0902252009C582622FF32995C0B321E
:102040009E58002909D0083A9D5AB43A875A9446B6
:102050003A002A40954200D1FDE09E2252009C5851
:102060004222FF32995C0B329D5800290BD1D823B4
:1020700000220021C254FFF7FDFDF0BCBB46B24672
:10208000A946A046F8BD7427C65B083A9A5A3300A1
:1020900013409A42EBD1E3B2994672239846C35C4F
:1020A0009C461C40A145E2D17624045BABB225409E
:1020B000AB42DCD19643C6532CE0E2B29146722289
:1020C0009046825C14404C4500D018E7AFB2B94648
:1020D0007627C75B3D40A94500D010E763469E4385
:1020E0005B46C6524346A243C254C4E7E7B2B94670
:1020F0007227B846C75DBC463C40A14500D00DE7FD
:102100007627C75BACB23D40AC4200D006E75B46E9
:102110009643C6524A466346934342468354AAE7CF
:10212000E2B2924672229146825C90461440A245E9
:1021300000D002E77624045BAAB22540AA4200D070
:10214000FBE663469E43C6535246434693434A4684
:10215000835490E7E2B2924672229146825C9046A6
:102160001440A24500D0F7E67624045BAAB22540CD
:10217000AA4200D0F0E6E4E7E2B29246722291462B
:10218000825C90461440A24500D0F6E67624045BBB
:10219000B2B22640B24200D0EFE66346AF43C75228
:1021A000D2E7E2B2924672229146825C9046144097
:1021B000A24500D0F3E67624045BB2B22640B242D8
:1021C00000D0ECE6E9E7E2B2924672229146825CE8
:1021D00090461440A24500D0F3E67624045BB2B2E8
:1021E0002640B24200D0ECE6D7E7E2B29246722235
:1021F0009146825C90461440A24500D0F3E67624D6
:10220000045BB2B22640B24200D0ECE6C5E7E2B2CF
:10221000924672229146825C90461440A24500D0BC
:10222000F3E67624045BB2B22640B24200D0ECE67C
:10223000B3E7E2B2924672229146825C9046144025
:10224000A24500D0F5E67624045BB2B22640B24245
:1022500000D0EEE6A1E7E2B2924672229146825C9D
:1022600090461440A24500D0F7E67624045BB2B253
:102270002640B24200D0F0E68FE7C046D023C358D4
:1022800013205B78042B02D8014A5B00985A7047F0
:10229000D4C30510722330B5C15C633B02000B4010
:1022A0000A2B55D832499B00CB589F46032331480F
:1022B00083707423D45A723B61000B400121A5083E
:1022C0000D402B4365080D40AD002B43E5080D4044
:1022D000ED002B4325090D402D012B4365090D40D1
:1022E0006D012B43A5090D40AD012B43E5090D40C0
:1022F000ED012B43250A0D402D022B43650A0D40AD
:102300006D022B43A50A0D40AD022B43E50A0D409B
:10231000ED022B43250B0D40640B2D0321402B4375
:1023200049030B430188890B89030B4303807823FE
:10233000D35A1B0AC3707A23D35A1B0A03717C2316
:10234000D35A1B0A43717E23D35A1B0A837130BDB3
:102350000823ACE70023AAE70423A8E70623A6E79F
:102360000723A4E70523A2E70223A0E701239EE7B2
:1023700040C30510F8350020722370B5C25C633B82
:10238000010013400A2B51D8304A9B00D3589F4676
:1023900003232F480122837074230225CC5A660040
:1023A000A308354013402B4365081540AD002B436F
:1023B000E5081540ED002B43250915402D012B4361
:1023C000650915406D012B43A5091540AD012B434F
:1023D000E5091540ED012B43250A15402D022B433D
:1023E000650A15406D022B43A50A1540AD022B432B
:1023F000E50A1540ED022B43250B1540640B2D0318
:1024000022402B435203134303807823CB5A1B0AE9
:10241000C3707A23CB5A1B0A03717C23CB5A1B0A45
:1024200043717E23CB5A1B0A837170BD0823B0E72A
:102430000023AEE70423ACE70623AAE70723A8E7B7
:102440000523A6E70223A4E70123A2E76CC3051036
:10245000B0350020722370B5C55C0233C15AAA089A
:10246000733B6E081A401E407600920032431E00F5
:102470002E40ED081D40ED0032432A434D0A1D4019
:102480002D012A430D0A1D406D012A438D0A1D406E
:10249000AD012A43CD0A1D40ED012A431D00040071
:1024A00020480D4082700A092D011A402A434D0927
:1024B0001D406D002A430D0B1D40AD002A434D0801
:1024C0001D406D012A438D081D40AD012A43CD08F2
:1024D0001D40ED012A43C270134D7822AC46A25A2A
:1024E0006244C2807A22A55A104A551B05817C2578
:1024F000655B654445817E25655B521B8281227840
:10250000002A06D07F33E35C03718123E35C4371CF
:1025100070BD8A09C9091A400B4052425B420271E0
:10252000DBB2F4E79C3500200080FFFFFF7F000056
:10253000F0B5DE4657464E4645467223E0B5C25CCE
:10254000633B83B013400A2B00D992E0544A9B00AE
:10255000D3589F46032374220125865A514CB7084D
:102560002F403F013B432F0037407F013B4377081B
:102570002F40BF013B43F7082F40FF013B436371EE
:102580007309B1092B4037092F402940F2095B003C
:102590002A403B438F0001923B43D7000F223B432D
:1025A000A77997433B43A371B20A730B2B402A4090
:1025B000370A99469046730AF20A360B2B402A4096
:1025C0002F403540D02686590093F67A9446002E47
:1025D00002D13E004F46B146334A2D02167892464C
:1025E000721C934652465B4613704A46009B12018A
:1025F0005B0113434246920113436246D2011343E7
:102600002B430F257F02B6023B433343E688354018
:102610002B43E3807823C35A1B0A63707A23C35A7F
:102620001B0AA3707C23C35A1B0AE3707E23C35A80
:102630001B0A23710378002B2BD08023C35C2372E9
:102640008123C25C80232000184962720A785B42B1
:102650001A430A700A792330134308220B7133F0AE
:102660009FFE200003B0F0BCBB46B246A946A04680
:10267000F0BD0F236FE706236DE707236BE7052304
:1026800069E7022367E7002365E7042363E7012383
:1026900061E749422172019B5A42D2B2D2E7C04659
:1026A00098C30510B8350020436001205041002038
:1026B00070B5C14C0500200053F020F8002844D12B
:1026C000BE4B202200211C00180033F063FE2122A3
:1026D0000021631E99545132AA5C01311800114245
:1026E00000D093E10223134200D054E1530700D5F8
:1026F00040E1120700D52BE174230122EB5A1A4264
:1027000000D013E19A0700D5FEE05A0700D5E9E0B2
:102710001A0700D5D4E0DA0600D5BFE09A0600D546
:10272000AAE05A0600D595E01A0600D580E0DA0541
:1027300000D56BE09A0557D45A0543D41A052FD417
:10274000DA041BD49B0407D470BD9D4800F002FC42
:10275000200052F0EFFFB3E7994B9A4A9B5CE72BBE
:1027600000D81DE202221833DBB2027000220C2BCB
:1027700001D8954AD25C2123C254E5E7904A934997
:10278000525CE72A00D800E202211832D2B201706E
:1027900000210C2A01D88C49895C21228154D1E77F
:1027A000874A8B49525CE72A00D8E3E102211832BC
:1027B000D2B2017000210C2A01D88349895C212200
:1027C0008154BDE77E4A8349525CE72A00D8C6E1BE
:1027D00002211832D2B2017000210C2A01D87A49A4
:1027E000895C21228154A9E7754A7B49525CE72A1A
:1027F00000D8A9E102211832D2B2017000210C2ABE
:1028000001D87149895C2122815495E76C4A73494A
:10281000525CE72A00D88CE102211832D2B2017052
:1028200000210C2A01D86849895C2122815481E762
:10283000634A6B49525CE72A00D86FE102211832E3
:10284000D2B2017000210C2A01D85F49895C212293
:1028500081546CE75A4A6349525CE72A00D852E136
:1028600002211832D2B2017000210C2A01D8564937
:10287000895C2122815457E7514A5B49525CE72A1F
:1028800000D835E102211832D2B2017000210C2AA1
:1028900001D84D49895C2122815442E7484A534975
:1028A000525CE72A00D818E102211832D2B2017036
:1028B00000210C2A01D84449895C212281542DE74A
:1028C0003F4A4B49525CE72A00D8FBE0022118320C
:1028D000D2B2017000210C2A01D83B49895C212227
:1028E000815418E7364A4349525CE72A00D8DEE0B3
:1028F00002211832D2B2017000210C2A01D83249CB
:10290000895C2122815403E72D4A3B49525CE72A26
:1029100000D8C1E002211832D2B2017000210C2A85
:1029200001D82949895C21228154EEE62449334C9F
:10293000095DE72900D8A5E018310132C9B202705B
:1029400000220C2901D8204A525C21214254D9E6A8
:102950001B4B2B4A9B5CE72B00D888E002221833E4
:10296000DBB2027000220C2B01D8174AD25C212363
:10297000C254C1E6124B23495B5CE72B6CD90221A0
:102980001833DBB2017000210C2B01D80E49C95C51
:102990002123C154ADE60A491B4C095DE72950D9F2
:1029A0001831C9B2037000230C2901D8064B5B5CB7
:1029B000212143549AE6C046484100207935002041
:1029C000148B002094070000C4C305108C0700007E
:1029D000840700007C070000740700006C070000FB
:1029E000640700005C070000540700004C0700006B
:1029F000440700003C070000340700002C070000DB
:102A0000240700001C070000140700006A486B4CF4
:102A1000005DE7280CD918300131C0B219700023CD
:102A20000C2801D8664B1B5C21216648435459E6AB
:102A30000726C4083040197081401C1918006170C5
:102A400050E607260123CC08314003708B4004195F
:102A500061780B43637049E607260121DC083340A7
:102A600001709940041963781943617041E60724A5
:102A70000122D908234002709A4041184B781A432A
:102A80004A7039E60725CC08294002708A400419AB
:102A900061780A43627035E607250121D4082A408F
:102AA0000170914004196278114361702DE6072589
:102AB0000121D4082A400170914004196278114321
:102AC000617025E607250121D4082A400170914054
:102AD00004196278114361701DE607250121D408AD
:102AE0002A4001709140041962781143617015E623
:102AF00007250121D4082A40017091400419627809
:102B0000114361700DE607250121D4082A400170A8
:102B10009140041962781143617005E6072501218F
:102B2000D4082A4001709140041962781143617001
:102B3000FDE507250121D4082A40017091400419C0
:102B4000627811436170F5E507250121D4082A4018
:102B5000017091400419627811436170ECE507251A
:102B60000121D4082A400170914004196278114370
:102B70006170E3E507250121D4082A4001709140E6
:102B80000419627811436170DAE507250121D40840
:102B90002A40017091400419627811436170D1E5B7
:102BA00007240122D908234002709A4041184B782B
:102BB0001A434A70C8E5C046148B00200C07000079
:102BC000C4C3051078350020D02310B5C3585B78F6
:102BD000032B0FD006D8002B0FD0012B07D1FFF706
:102BE000CBFB03E0042B02D1FFF7A2FC10BDFFF7E3
:102BF00051FBFBE7FFF75CFDF8E7FFF72BFCF5E780
:102C000030B5164A8FB01368591C1160002B07D1DC
:102C10000121134A4942116053609360D3601361EC
:102C2000104B1C68621C1A60002C01D00FB030BD24
:102C300038220D49684633F0B3FB0C4D38202C6028
:102C40006C60AC6033F0B2FB040038223834694663
:102C50002860AC6033F0A4FB6C60E7E734410020EF
:102C60001C41002030410020E0C3051024B90020A1
:102C7000044B10B51868002803D09968091A33F07E
:102C8000A1FB10BDD0850020F8B545680468070099
:102C90000E00AC4206D023681A79B24203D0043445
:102CA000A542F8D1F8BD186804340368DB6898477A
:102CB0007D68A542EFD1F5E7F8B5456804680700DF
:102CC0000E00AC4206D023681A79B24203D0043415
:102CD000A542F8D1F8BD1868043403689B6898478A
:102CE0007D68A542EFD1F5E7F0B5454657464E461B
:102CF000DE46E0B50668456888463449AB1B0400EB
:102D0000924683B09B108B425DD04246921B914607
:102D1000AE423FD05A00934228D8002300279B465A
:102D2000002A3AD153464A461B68BB504B460433EF
:102D30009A464346ED1A2B00BA4453440193002AA5
:102D40001CDC002D04DD2A004146504633F028FBF0
:102D5000002E19D1019B276063605B46A36003B01E
:102D6000F0BCBB46B246A946A046F0BD184B9B46F8
:102D7000584633F01BFB07008344D3E7310038008B
:102D800054F0E6FE002D0FDCA1683000891B33F003
:102D900019FBDFE75A1C0133E8D280239B059A42D6
:102DA0000DD293009B46E3E741462A00504633F09C
:102DB000F7FAA1683000891B33F004FBCAE70A0068
:102DC00093009B46D4E7034852F062FEFFFFFF1FCB
:102DD000FCFFFF7F20860510F0B50B68050083B06F
:102DE00008001B680C001700984700281CD008201A
:102DF00033F0DCFA0600236801905B6820009847F6
:102E00006968AB6834603771994213D040C169601A
:102E1000114E300052F072FC104D00280FD12100ED
:102E2000280001F0E9FA03E00421200033F0CAFA97
:102E300003B0F0BD280001AAFFF756FFE8E7002322
:102E400007482B606B60AB602B6154F015F93000C4
:102E500052F070FCE3E7C04640410020D0850020DE
:102E6000712C0010F0B50B68050083B008001B68DA
:102E70000C0017009847002811D0082033F096FA6C
:102E80000600236801905B68200098476968AB687A
:102E900034603771994208D040C1696003E0042171
:102EA000200033F08FFA03B0F0BD280001AAFFF72D
:102EB0001BFFF8E770B505000C1E01D02C7070BD2B
:102EC000042033F073FA0600024B036010F046FB57
:102ED0006E60F3E7CCCE051010B5406803685B6800
:102EE000984710BD30B5164A8FB01368591C116051
:102EF000002B07D10121134A4942116053609360AE
:102F0000D3601361104B1C68621C1A60002C01D046
:102F10000FB030BD38220D49684633F041FA0C4DF0
:102F200038202C606C60AC6033F040FA040038222A
:102F3000383469462860AC6033F032FA6C60E7E7F9
:102F4000344100201C4100203041002018C40510ED
:102F500024B90020CE2370B5002504005B01057064
:102F600045608560C5500A4B9E220021C01833F091
:102F700011FA084B0848E55049F05EF8074BE01895
:102F80002FF02CF9064BE0180BF008F8200070BD6C
:102F9000C4190000641A000018410020B81900008C
:102FA000D4040000034B10B59C4660440AF0BAFEFE
:102FB00010BDC046D4040000F8B5CE46474680B5E3
:102FC000BFF35B8FF94B0400C6183378BFF35B8FF8
:102FD000002B00D1D8E3F64BC258EFF3108172B644
:102FE0001368002BFCD0BFF35F8FF14BE718F14B58
:102FF00079601800984652F081FBEF4D002800D010
:10300000C6E3EE4BEE4AE3181979A9505979ED4A17
:10301000A9509979EC4AA950D979EC4AA9505A7A21
:10302000197A12020A431204E94912146A50DA7A30
:10303000997A12020A431204E64912146A50197B63
:10304000E54AA950597BE54AA954DA7B997B1202DB
:103050000A43197C090411435A7C12060A43E049C9
:103060006A50DA7C997C12020A43197D09041143E3
:103070005A7D12060A43DB496A50DA7D997D1202B5
:103080000A43197E090411435A7E12060A43D6499F
:103090006A50DA7E997E12020A43197F09041143AD
:1030A0005A7F12060A43D1496A509A7FDB7F1B027E
:1030B0001343CF4AA218127812041A43CD4BE318D7
:1030C0001B781B061343CC4AAB50CC4BE3181A7841
:1030D000CB4BE3181B781B021343CA4AA218127881
:1030E00012041A43C84BE3181B781B061343C74A44
:1030F000AB50C74BE3181A78C64BE3181B781B027A
:103100001343C54AA218127812041A43C34BE3189A
:103110001B781B061343C24AAB50C24BE3181A7804
:10312000C14BE3181B781B021343C04AA218127844
:1031300012041A43BE4BE3181B781B061343BD4A07
:10314000AB50BD4BE3181A78BC4BE3181B781B023D
:103150001343BB4AA218127812041A43B94BE3185E
:103160001B781B061343B84AAB50B84BE3181A78C8
:10317000B74BE3181B781B021343B64AA218127808
:1031800012041A43B44BE3181B781B061343B34ACB
:10319000AB50B34BE3181A78B24BE3181B781B0201
:1031A0001343B14AA218127812041A43AF4BE31822
:1031B0001B781B061343AE4AAB50AE4BE3181A788C
:1031C000AD4BE3181B781B021343D0225201A21807
:1031D000127812041A43A94BE3181B781B061343F9
:1031E000A74AAB50A74BE3181A78A74BE3181B78F4
:1031F0001B021343A54AA218127812041A43A44BC7
:10320000E3181B781B061343A24AAB50A24BE318EA
:103210001A78A24BE3181B781B021343A04AA2188A
:10322000127812041A439F4BE3181B781B061343B2
:103230009D4AAB509D4BE3181A789D4BE3181B78C1
:103240001B0213439B4AA218127812041A439A4B8A
:10325000E3181B781B061343984AAB50984BE318AE
:103260001A78984BE3181B781B021343964AA2184E
:10327000127812041A43954BE3181B781B0613436C
:10328000934AAB50934BE3181A78934BE3181B788F
:103290001B021343914AA218127812041A43904B4E
:1032A000E3181B781B0613438E4AAB508E4BE31872
:1032B0001A788E4BE3181B781B0213438C4AA21812
:1032C000127812041A438B4BE3181B781B06134326
:1032D000894AAB50894BE3181A78894BE3181B785D
:1032E0001B021343874AA218127812041A43864B12
:1032F000E3181B781B061343844AAB50844BE31836
:103300001A78844BE3181B781B021343D122520115
:10331000A218127812041A437F4BE3181B781B067D
:1033200013437E4AAB507E4BE3181A787D4BE3186B
:103330001B781B0213437C4AA218127812041A430A
:103340007A4BE3181B781B061343794AAB50794B31
:10335000E3181A78784BE3181B781B021343774A5B
:10336000A218127812041A43754BE3181B781B0637
:103370001343744AAB50744BE3181A78734BE31839
:103380001B781B021343724AA218127812041A43C4
:10339000704BE3181B781B0613436F4AAB506F4BFF
:1033A000E3181A786E4BE3181B78DBE0B4190000C1
:1033B000B819000048410020148B0020C4190000F7
:1033C0002C0D0000340D00003C0D0000440D0000E9
:1033D0004C0D0000540D00005C0D0000610D00005C
:1033E000640D00006C0D0000740D00007C0D0000E9
:1033F000E4190000E5190000840D0000E619000042
:10340000E7190000E8190000E91900008C0D000020
:10341000EA190000EB190000EC190000ED1900009A
:10342000940D0000EE190000EF190000F0190000E3
:10343000F11900009C0D0000F2190000F3190000C2
:10344000F4190000F5190000A40D0000F6190000A1
:10345000F7190000F8190000F9190000AC0D000080
:10346000FA190000FB190000FC190000FD1900000A
:10347000B40D0000FE190000FF190000011A000041
:10348000BC0D0000021A0000031A0000041A00001C
:10349000051A0000C40D0000061A0000071A0000FB
:1034A000081A0000091A0000CC0D0000121A0000D2
:1034B000131A0000141A0000151A0000E40D000091
:1034C000161A0000171A0000181A0000191A000036
:1034D000EC0D00000A1A00000B1A00000C1A000084
:1034E0000D1A0000D40D00000E1A00000F1A000083
:1034F000101A0000111A0000DC0D00001A1A00005A
:103500001B1A00001C1A00001D1A0000F40D000018
:103510001E1A00001F1A0000211A0000FC0D0000F6
:10352000221A0000231A0000241A0000251A0000A5
:10353000040E0000261A0000271A0000281A0000B6
:10354000291A00000C0E00002A1A00002B1A000095
:103550002C1A00002D1A0000140E00002E1A000074
:103560002F1A00001B0213439A4AA2181278120461
:103570001A43994BE3181B781B061343974AAB5029
:10358000974BE3181A78974BE3181B781B021343E9
:10359000954AA218127812041A43944BE3181B7828
:1035A0001B061343924AAB50924BE3181A78924B86
:1035B000E3181B781B021343904AA21812781204D6
:1035C0001A438F4BE3181B781B0613438D4AAB50ED
:1035D0008D4BE3181A788D4BE3181B781B021343AD
:1035E0008B4AA218127812041A438A4BE3181B78EC
:1035F0001B061343884AAB50884BE3181A78884B54
:10360000E3181B781B021343D2225201A21812782E
:1036100012041A43834BE3181B781B061343824A98
:10362000AB50824BE3181A78814BE3181B781B02CE
:103630001343804AA218127812041A437E4BE318EF
:103640001B781B0613437D4AAB507D4BE3181A7859
:103650007C4BE3181B781B0213437B4AA218127899
:1036600012041A43794BE3181B781B061343784A5C
:10367000AB50784BE3181A78774BE3181B781B0292
:103680001343764AA218127812041A43744BE318B3
:103690001B781B061343734AAB50734BE3181A781D
:1036A000724BE3181B781B021343714AA21812785D
:1036B00012041A436F4BE3181B781B0613436E4A20
:1036C000AB506E4BE3181A786D4BE3181B781B0256
:1036D00013436C4AA218127812041A436A4BE31877
:1036E0001B781B061343694AAB50694BE3181A78E1
:1036F000684BE3181B781B021343D3225201A21814
:10370000127812041A43644BE3181B781B06134308
:10371000624AAB50624BE3181A78624BE3181B788D
:103720001B021343604AA218127812041A435F4B1B
:10373000E3181B781B0613435D4AAB505D4BE3183F
:103740001A785D4BE3181B781B0213435B4AA218DF
:10375000127812041A435A4BE3181B781B061343C2
:10376000584AAB50584BE0180AF0DCFA0023BFF37C
:103770005B8F3370BFF35B8F544AA1587A68BFF3F5
:103780005F8F0B6082F31088C0BCB946B046F8BDAD
:10379000002399462B706B60AB60CE234A465B01D9
:1037A000EA504B4B0021E8189E3232F0F3FD4A46B6
:1037B000484B4948EA5048F03FFC444BE8182EF08B
:1037C0000DFD414BE8180AF0E9FB404651F0B2FF0D
:1037D000FFF717FC301A0000311A00001C0E000021
:1037E000321A0000331A0000341A0000351A0000A3
:1037F000240E0000361A0000371A0000381A0000A4
:10380000391A00002C0E00003A1A00003B1A000082
:103810003C1A00003D1A0000340E00003E1A000061
:103820003F1A0000411A00003C0E0000421A00003E
:10383000431A0000441A0000451A0000440E00001C
:10384000461A0000471A0000481A0000491A0000F2
:103850004C0E00004A1A00004B1A00004C1A0000DF
:103860004D1A0000540E00004E1A00004F1A0000BE
:10387000501A0000511A00005C0E00005A1A000095
:103880005B1A00005C1A00005D1A0000740E000054
:103890005E1A00005F1A0000611A00007C0E000032
:1038A000521A0000531A0000541A0000551A000062
:1038B000640E0000561A0000571A0000581A000043
:1038C000591A00006C0E0000D4040000B819000062
:1038D000C4190000641A000018410020F0B5C64663
:1038E0000F0000B582B006003D0001A848F048FB7B
:1038F0003C009E35210001A8013448F045FBAC4254
:10390000F8D101A848F058FB174B0400F158EFF329
:10391000108372B60A68002AFCD0BFF35F8F124A88
:10392000B5186B6008329046B258A2420FD00F4BC8
:103930009E22F018390032F033FD43460122F45044
:10394000BFF35B8F0A4BF254BFF35B8F6B68064A81
:10395000B258BFF35F8F0021116083F3108802B06B
:1039600080BCB846F0BDC046B8190000C4190000BC
:10397000B419000010B5054848F0C2FBFA22002037
:103980000349D2002FF050FF10BDC046184100205F
:1039900000200420F0B54E464546DE465746E0B5C9
:1039A0003D4D0400465983B0002E07D0300003B0CF
:1039B000F0BCBB46B246A946A046F0BD982032F006
:1039C00093FC364B6051E558354B9822E118023D87
:1039D000060032F0E5FC022DE8D86B005B19314A95
:1039E0005B01E3189A1812689346C52252019A188F
:1039F000126892462C4A9A18126891462B4A9A18D5
:103A0000126890462A4A9A1812680092C6225201F9
:103A10009A181768274A9A181568274A9A18146836
:103A2000264A9A181068C72252019A181168244A27
:103A30009A1812680192234A94465A4663441B68B6
:103A40001D2A00D8726252461D2A00D8F2624A46E8
:103A50001D2A00D8726342461D2A00D8F263009ADC
:103A60001D2A00D872641D2F00D8F7641D2D00D8C0
:103A700075651D2C00D8F4651D2800D870601D29BF
:103A800000D8F160019A1D2A00D872611D2B00D95F
:103A90008CE7F3618AE7C046641A00000C05000059
:103AA0006C06000098180000A8180000B01800006C
:103AB000B8180000C8180000D0180000D81800007E
:103AC000E8180000F0180000F0B54546DE465746FD
:103AD0004E46E0B54B1E04000D0085B0032B06D901
:103AE00005B0F0BCBB46B246A946A046F0BD424B6D
:103AF000424E98228059E11832F052FCAA1E022A46
:103B000076D853009B185B013D4AE3189A18126857
:103B10009346C52252019A1812689246394A9A1859
:103B200012689146384A9A1812689046374A9A188D
:103B300012680092C62252019A181768344A9A18DD
:103B40001068344A9A1812680192334A9A18126817
:103B50000292C72252019A181168304A9A181268C4
:103B600003922F4A94465A4663441B681D2A01D883
:103B7000A659726252461D2A02D8204EA659F262F8
:103B80004A461D2A02D81D4EA659726342461D2A76
:103B900002D81A4EA659F263009A1D2A02D8174E6F
:103BA000A65972641D2F02D8144EA659F7641D2819
:103BB00002D8124EA6597065019E1D2E02D80F48DC
:103BC0002058C665029E1D2E02D80C48205846601B
:103BD0001D2902D809482058C160039A1D2A02D81D
:103BE000064961584A611D2B02D8044AA258D36184
:103BF0000C4BE55074E7C0466C060000641A0000E8
:103C000098180000A8180000B0180000B8180000AC
:103C1000C8180000D0180000D8180000E8180000EC
:103C2000F01800000C0500000300054A10B50170F3
:103C3000991895222C30D20032F0B2FB10BDC0464C
:103C40009C070000007870474160704740687047EB
:103C5000816070478068704710B5202200210C30C9
:103C600032F098FB10BDC0460C307047F8B5F74EE7
:103C70000500300051F042FDF54C002800D044E230
:103C800000232B706B70AB70EB70F24BE358FF2B83
:103C900000D9FF232B71F04BE358FF2B00D9FF23F2
:103CA0006B71EE4BE358FF2B00D9FF23AB71EC4B4C
:103CB000E358FF2B00D9FF238022EB71E94B52021E
:103CC000E358934200DBE84B9AB2120A6A728022F0
:103CD0002B72E64B5202E358934200DBE24BAB728D
:103CE0009AB2E34B120AE358EA72E24A2B73A25CDF
:103CF000E14B2800E35CAA73DE4A6B73A21851788B
:103D00002B00E9739178D27829746A74DB4A1E33E8
:103D1000A25CAA74D94AA2185178E9749178D27831
:103D200029756A75D64AA25CAA75D54AA218517837
:103D3000E9759178D27829766A76D24AA25CAA7619
:103D4000D04AA2185178E9769178D27829776A77A3
:103D5000CD4AA25CAA77CC4AA2185178E97791782B
:103D6000D2789970DA70C94AA25C1A71C74AA2184F
:103D7000517859719178D2789971DA71C44AA25CFC
:103D80001A72C34AA218517859729178D2789972EE
:103D9000DA72C04AA25C1A73BE4AA21851785973EB
:103DA0009178D2789973DA73BB4A1033A25C1A7097
:103DB000B94AA218517859709178D2789970DA700E
:103DC000B64AA25C1A71B54AA21851785971917815
:103DD000D2789971DA71B24AA25C1A72B04AA2180A
:103DE000517859729178D2789972DA72AD4AA25CA0
:103DF0001A73AC4AA218517859739178D278997392
:103E0000DA73A94A1033A25C1A70A74AA218517833
:103E100059709178D2789970DA70A44AA25C1A71BC
:103E2000A24AA218517859719178D2789971DA71B1
:103E30009F4A0833A25C1A729D4AA218517859729F
:103E40009178D2789972DA729A4AA25C1A73994A76
:103E5000A218517859739178D2789973DA73964A87
:103E6000A25C1A70944AA218517859709178D2784D
:103E70009970DA70914A0433A25C1A708F4AA218C2
:103E8000517859709178D2789970DA708C4AA25C26
:103E90001A738B4AA218517859739178D278997312
:103EA000DA73884AA25C1A74864AA2185178597447
:103EB0009178D2789974DA74834AA25C1A75824A2E
:103EC000A218517859759178D2789975DA757F4A28
:103ED0001833A25C1A707D4AA218517859709178F3
:103EE000D2789970DA707A4AA25C1A71784AA2186C
:103EF000517859719178D2789971DA71754AA25CCA
:103F00001A72744AA218517859729178D2789972BB
:103F1000DA72714AA25C1A736F4AA2185178597307
:103F20009178D2789973DA736C4A1033A25C1A7064
:103F30006A4AA218517859709178D2789970DA70DB
:103F4000674AA25C1A71664AA21851785971917831
:103F5000D2789971DA71634AA25C1A72614AA21826
:103F6000517859729178D2789972DA725E4AA25C6D
:103F70001A735D4AA218517859739178D27899735F
:103F8000DA735A4BE25C8223EA54584BE2182B0056
:103F90005178823359709178D2789970DA70544B95
:103FA000E25C8623EA54524BE2182B0051788633A8
:103FB00059709178D2789970DA704E4BE25C8A230E
:103FC000EA544C4BE2182B0051788A33597091789F
:103FD000D2789970DA70484BE25C9623EA54464BEB
:103FE000E2182B005178963359709178D2789970F5
:103FF000DA70424BE25C9A23EA54404BE2182B0001
:1040000051789A3359709178D2789970DA703C4B24
:10401000E25C8E23EA543A4BE2182B0051788E333F
:1040200059709178D2789970DA70364BE25C9223AD
:10403000EA54344B9C462B006444627892335A70A5
:10404000A2789A70E278DA705EE0C04648410020BB
:10405000148B00202C0D0000340D00003C0D0000DE
:10406000440D00004C0D0000FFFF0000540D000047
:104070005C0D0000640D0000610D00006C0D00007F
:10408000740D00007C0D0000840D00008C0D0000FC
:10409000940D00009C0D0000A40D0000AC0D00006C
:1040A000B40D0000BC0D0000C40D0000CC0D0000DC
:1040B000E40D0000EC0D0000D40D0000DC0D00004C
:1040C000F40D0000FC0D0000040E00000C0E0000BA
:1040D000140E00001C0E0000240E00002C0E000028
:1040E000340E00003C0E0000440E00004C0E000098
:1040F000540E00005C0E0000740E00007C0E0000E8
:10410000640E00006C0E0000F8BDCE2300275B019A
:10411000E7500D4B9E220021E01827706760A760D2
:1041200032F038F9094B0A48E75047F085FF094B50
:10413000E0182EF053F8084BE01809F02FFF30007C
:1041400051F0F8FA9CE5C046C4190000641A00005A
:1041500018410020B8190000D404000070B5154DB6
:10416000280051F0CBFA144C002804D12000134948
:10417000FFF7B4FB70BDCE2300265B01E650104B69
:104180009E220021E01826706660A66032F002F9D7
:104190000C4B0D48E65047F04FFF0C4BE0182EF04B
:1041A0001DF80B4BE01809F0F9FE280051F0C2FA97
:1041B000DCE7C04648410020148B002068640020E2
:1041C000C4190000641A000018410020B81900004A
:1041D000D404000030B5164A8FB01368591C116022
:1041E000002B07D10121134A4942116053609360AB
:1041F000D3601361104B1C68621C1A60002C01D044
:104200000FB030BD38220D49684632F0C9F80C4D68
:1042100038202C606C60AC6032F0C8F804003822A2
:10422000383469462860AC6032F0BAF86C60E7E771
:10423000344100201C4100203041002050C40510B2
:1042400024B90020802080037047C0460148024BFB
:10425000C01A704710770B1000000010024B034883
:10426000C01A034BC018704700000420002004202F
:10427000686001000148024BC01A7047000004202A
:104280006860012000B58BB0684653F0ABFA079820
:104290000BB000BD10B5040001200649404235F0C6
:1042A00063FC054B0022002100201C622FF0BCFAA9
:1042B00030BFFDE7FFFFFF0F0080054010B52FF076
:1042C00001FB002811D00A4B186A0A4B984208D00B
:1042D000094B984205D0094BC3185A4253415B42DF
:1042E00018400022024B1A6210BD0020FCE7C046B5
:1042F00000800540CD66D543A58477E71F1BC8081D
:10430000044B10B51868002803D09968091A32F0D8
:1043100059F810BDD0850020F0B5D6464F46464628
:10432000C0B5C47882B0002C05D18368DD799A7954
:104330002D02154305D102B0E0BCBA46B146A846ED
:10434000F0BD9A78DE78037836029846144B16430F
:104350001800994651F0D2F9124F002815D13C6847
:104360007B689C42E7D0330A9946F3B29A464A46A4
:1043700001CC414603680092019500225E6A5346D3
:10438000B0477A68A242F2D1D5E707483C607C602A
:10439000BC603C6152F070FE484651F0CBF9DEE75C
:1043A00040410020D0850020014300100174704777
:1043B00070B502684368040084B09A4215D06A461A
:1043C00011000B4B61CB61C11B6801200B60237C8A
:1043D0000849137032F062FF012032F075FF0A20A5
:1043E00000212EF07DFB0123E37404B070BDC046B4
:1043F00088C40510004C0400F8B5CE464746436813
:10440000826804000D0080B5934205D002C343606A
:10441000C0BCB946B046F8BD026821499F1A904613
:10442000BA108A4238D0434520D053009A4220D84F
:10443000002200269146002B23D1F5513D1D751910
:10444000002F07DC4346002B23D14B4626606560D6
:10445000A360DDE741463A00300053F079FB434664
:10446000A168C91A404631F0ADFFEEE7531C013296
:1044700007D30C4B9946484631F098FF060081441B
:10448000DBE780229205934200D30B009B00994604
:10449000F1E7A168C91AE5E7034851F0F9FAC04607
:1044A000FFFFFF1FFCFFFF7F2086051010B5C37CB8
:1044B000002B00D110BD01200021404232F064FFEA
:1044C000F8E7C046F0B5DE46574645464E469B46A1
:1044D0008023E0B5C5B08A46904600215B0004AA5F
:1044E000039033F02FFB00283CD102AB5B8904AA78
:1044F000D51802AB1B7AD618B54233D9737801228E
:104500000B2B03D13378F278F6187378042B48D14B
:104510007379032B59D0A91B571E89B2FFB2002A09
:10452000EAD03278330014000020201880B29B18A3
:10453000814206D80DE01A78101880B29B1881428B
:1045400007D95A780B2A0AD0042AF4D1DA78002A3B
:10455000F1D1013FFFB2FF2F01D01A78E5E73618FD
:10456000B542CBD81B4E300051F0C8F81A4B9946D3
:1045700000281DD14B464A465B6816689E420CD007
:104580005A4601CE0399036800925D69524643463C
:10459000A8474B465B68B342F2D15146039834F0CA
:1045A0002DF945B0F0BCBB46B246A946A046F0BDC9
:1045B00000234A460948136053609360136152F028
:1045C0005BFD300051F0B6F8D4E7054BB2781A70B5
:1045D000C8E7C04640410020D085002001430010BC
:1045E0004660012070B5104C0600200051F086F89E
:1045F0000E4D00280CD12C686B689C4207D001CC72
:10460000310003689B6998476B68A342F7D170BD7E
:10461000002307482B606B60AB602B6152F02CFDD0
:10462000200051F087F8E6E740410020D0850020C7
:1046300001430010F0B5D6464F464646C0B5194C6A
:10464000070082B02000884691469A4651F056F8FD
:10465000154E002819D1346873689C420BD052461D
:1046600001CC390003680092DD6942464B46A847F9
:104670007568A542F3D14146380034F0BFF802B066
:10468000E0BCBA46B146A846F0BD002307483360F7
:104690007360B360336152F0EFFC200051F04AF8D0
:1046A000D9E7C04640410020D085002001430010DA
:1046B000F0B5574645464E46DE46E0B583B09846CF
:1046C0000CAB1B8805000E0017009A46002B06D184
:1046D00003B0F0BCBB46B246A946A046F0BD154C9F
:1046E000200051F00BF8144B9B46002815D15B4677
:1046F0001C685B689C42EBD0524601CC29000368E1
:104700000192424600921B6A320099463B00C8471C
:104710005B465B68A342EFD1DAE700235A460748BD
:10472000136053609360136152F0A6FC200051F0B7
:1047300001F8DCE740410020D08500200143001053
:1047400070B588B06C460500A2201B020CA913436B
:1047500040C963800B4B09881B78FF302080A38001
:10476000E18002AC18220021200031F013FE064B3C
:10477000200006936B4625700493059632F00CFEDC
:1047800008B070BD4660012019430010F0B5D64650
:104790004F464646C0B5DC4D82B004006846AF6A5D
:1047A00047F0EEFBD94E29006846013547F0ECFB97
:1047B000B542F8D1002301AD019302AE290068464D
:1047C000013547F0E1FBAE42F8D1684647F0F4FB13
:1047D0000026874201D101F001F88023CC4D6846C4
:1047E000EF5847F0CDFBCB4B984629006846013582
:1047F00047F0CAFB4545F8D10023019302AB984628
:1048000001AD29006846013547F0BEFBA845F8D147
:10481000684647F0D1FB874201D100F051FEBE4D02
:1048200068462F6F47F0ACFBBC4B984629006846A2
:10483000013547F0A9FB4545F8D10023019302ABB0
:10484000984601AD29006846013547F09DFBA84513
:10485000F8D1684647F0B0FB874201D101F0E8F893
:10486000AF4B68461B6801AD984647F089FB0023B3
:1048700002AF019329006846013547F085FBAF423E
:10488000F8D1A84DA84F29006846013547F07CFBB8
:10489000BD42F8D1684647F08FFB804500D01DE24D
:1048A000852301221B01E254A04B0126E1189C4BF9
:1048B000187948609D48225458790A72C8609879DE
:1048C0000A744861D8790A76C8610825585F486239
:1048D0009748201802700A25585FC862954820182A
:1048E0000270187B486394482018027093485D7BDF
:1048F00020180570924820180270188ADD8900047B
:104900002843C8638F4820180270988A5D8A000483
:10491000284348648C4820180270188BDD8A0004F4
:104920002843C864894820180270988B5D8B000466
:1049300028434865864820180270188CDD8B0004D7
:104940002843C865834820180270988C5D8C000449
:1049500028434866804820180270188DDD8C0004BA
:104960002843C8667D4820180270988D5D8D00042C
:10497000284348677A4820180270188EDD8D00049D
:104980002843C867774961180A7077495D8E6018B7
:10499000998E090429430160744961180A708E21B7
:1049A0000901DD8E6018198F0904294301607049DF
:1049B00061180A706F495D8F6018998F0904294347
:1049C00001606D4961180A708F210901601840214A
:1049D000595ADD8F090429430160684961180A703A
:1049E0006749601842215D5A0231595A0904294326
:1049F0000160644961180A7090210901601846211C
:104A00005D5A0231595A0904294301605E4961180F
:104A10000A705E4960184A215D5A0231595A0904E8
:104A2000294301605A4961180A70912109016018EF
:104A30004E215D5A0231595A0904294301605549F2
:104A400061180A705449601852215D5A0231595A4E
:104A5000090429430160514961180A709221090132
:104A6000601856215D5A0231595A090429430160E0
:104A70004B4961180A704B4960185A215D5A02313E
:104A8000595A090429430160474961180A70932162
:104A9000090160185E215D5A0231595A09042943FF
:104AA0000160424961180A704149601862215D5AEB
:104AB0000231595A0904294301603E4961180A70BC
:104AC00094210901601866215D5A0231595A09047E
:104AD00029430160384961180A70384960186A2111
:104AE0005D5A0231595A0904294301603449611859
:104AF0000A709521090160186E215D5A0231595AD8
:104B00000904294301605DE000E01F1028E01F1048
:104B100000E41F1080E41F1000E61F1070E61F1055
:104B200000E81F1004E81F109EE81F105408000042
:104B3000740800007C080000840800008D08000054
:104B40008C0800008E080000940800009C080000FB
:104B5000A4080000AC080000B4080000BC08000075
:104B6000C4080000CC080000D8080000D4080000E9
:104B7000DC080000E8080000E4080000EC08000081
:104B8000F8080000F4080000FC0800000809000014
:104B9000040900000C0900001809000014090000B5
:104BA0001C09000028090000240900002C0900004D
:104BB00038090000340900003C09000048090000E1
:104BC000440900006D4961180A706D49601872212E
:104BD0005D5A0231595A0904294301606949611833
:104BE0000A7096210901601876215D5A0231595ADE
:104BF000090429430160644961180A706349601817
:104C00007A215D5A0231595A0904294301606049E9
:104C100061180A709721090160187E215D5A0231DE
:104C2000595A0904294301605A4961180A705A49BE
:104C3000601882215D5A0231595A090429430160E2
:104C4000564961180A7098210901601886215D5A39
:104C50000231595A090429430160514961180A7007
:104C6000504960188A215D5A0231595A0904294372
:104C700001604D4961180A709921090160188E215F
:104C80005D5A0231595A09042943016047496118A4
:104C90000A704749601892215D5A0231595A090435
:104CA00029430160434961180A709A21090160187B
:104CB00096215D5A0231595A0904294301609C2505
:104CC0009A203D4961180A70185A5B5B3B491B04E6
:104CD000034361180B603A4BE3181A70394D68466C
:104CE0006F6E47F04DF9384B9846290068460135FC
:104CF00047F04AF94545F8D10023019302AB9846A5
:104D000001AD29006846013547F03EF9A845F8D1C4
:104D1000684647F051F9874262D02C492C4A2D4B06
:104D20008A589A4200D1E1E280232B4DDB0068468D
:104D3000EF5847F025F9294B984629006846013578
:104D400047F022F94545F8D10023019302AB98467C
:104D500001AD29006846013547F016F9A845F8D19C
:104D6000684647F029F9874201D100F054FF30002E
:104D700002B0E0BCBA46B146A846F0BD4C090000FE
:104D800058090000540900005C090000680900008F
:104D9000640900006C090000780900007409000033
:104DA0007C09000088090000840900008C090000CB
:104DB00098090000940900009C090000A80900005F
:104DC000A409000000EC1F1064EC1F1000F01F107D
:104DD00094060000EFBEADDE00F81F1000FC1F10AF
:104DE0000123F94AF948A354F94AA3545422815C97
:104DF0004A1E9141F74AA2185170F64963541F3375
:104E0000C35CFF2B01D101F069F853600123EF4926
:104E100093702033CB5CFF2B01D101F063F8D3609A
:104E2000012313729B221201A3545622E749885C86
:104E3000421E9041E84AA2185070E7482354488C1B
:104E400093705060E54AA3545722885C421E9041FB
:104E5000B3221201A2185070B320000123542B3347
:104E6000CB5CFF2B01D101F041F8012153602D23D0
:104E7000D6489170C35C1172D360D94BE15458236A
:104E8000C25C531E9A41B0231B01E3185A70B02232
:104E90001201A154427EFF2A01D101F02BF85A6081
:104EA00001229A70C94A927EFF2A01D101F056F878
:104EB000DA6001221A72C54AD27EFF2A01D101F0BE
:104EC00051F85A6101221A74C04A127FFF2A01D197
:104ED00000F05EFFDA610122BC491A76497F02299F
:104EE00001D800F04CFFB94A917F59620121BD4BB6
:104EF000E3181970B4231B01E1545923D05C431EFD
:104F00009841B94BE3185870B74821542331525C8B
:104F1000FF2A01D100F0C2FF5A600122AB499A700A
:104F2000886A1A72D860AD231B01E2545A23C85C08
:104F3000431E9841AD4BE3185870AC4822540869A1
:104F40009A7058604A7BFF2A01D100F0ABFFDA600B
:104F500001221A729D4A927BFF2A01D100F0A6FF1E
:104F60005A61012299491A74087E1A76D8614869F3
:104F700058629F4BE3181A70A8231B01E2545B236D
:104F8000C85C431E98419B4BE318587099482254C3
:104F90008A78FF2A01D100F08DFF5A6001229A70B1
:104FA0008A4AD278FF2A01D100F088FFDA60012214
:104FB0001A72914B8549E2545C23C85C431E9841A8
:104FC0008E4BE31858708D4822542E20085C9A703E
:104FD00058608B4BE2545E23C85C431E9841AA2361
:104FE0001B01E3185870AA20000122544A78FF2AB6
:104FF00001D100F067FF5A6001229A70734A127A59
:10500000FF2A01D100F062FFDA6001226F491A72B3
:10501000487A1A745861887A1A76D861C87A5862C0
:10502000AC20000120180270087BD862754BE31891
:105030001A70754BE2546023C85C431E9841734B51
:10504000E3185870714822540A79FF2A01D100F000
:1050500041FF5A6001229A705C4A5279FF2A01D1BD
:1050600000F054FFDA600122492158481A72415C6D
:10507000042901D800F079FE472254498A5C042AA9
:1050800001D800F067FE482250498A5C042A01D802
:1050900000F05BFE01225E4B4C48E2545523C35C9A
:1050A000591E8B415B496118CB708A70C37F022BFC
:1050B00001D800F045FE0120574B4449E0545F23DE
:1050C000CA5C531E9A41554BE3185A70534AA05478
:1050D0000A78FF2A01D100F01DFF5A6001229A7060
:1050E0003A4AD279FF2A01D100F008FF0121DA60A3
:1050F000364A19729079197458614531525CFF2A09
:1051000001D100F0FFFE01212F20DA612F4A19762C
:10511000105C451EA841424D651928704148201871
:105120000170508E5862404820180170908ED862ED
:105130003E4820180170D08E58633D4820180170F9
:10514000108FD8633B48201801703931525CFF2A18
:1051500001D100F0E3FE01215A64374AA218117010
:105160003B221A498A5CFF2A01D100F0DBFE0121B3
:10517000DA64324AA21811703C2214498A5CFF2A70
:1051800001D100F0D3FE01215A652D4AA2181170F9
:105190003D220E498A5CFF2A01D100F0CBFEDA6580
:1051A0000122284961180A700849C88F58662648A4
:1051B000201802704020085AD8662448201802702F
:1051C0004220085A586743E0AC09000000EC1F1069
:1051D000C1090000C4090000B40900002C0B000044
:1051E000FC0A0000220B0000440B0000D40A00005F
:1051F000F40A0000840A0000540B0000580B000061
:105200009C0A0000C80A0000481200004C1200006E
:10521000BC090000BD090000F8090000FC090000FD
:105220001D0A00001C0A00001E0A0000240A0000DB
:105230002C0A0000340A00003C0A0000440A000066
:105240004C0A0000540A00005C0A0000640A0000D6
:105250006E48201802704420085AD8676C4BE31837
:105260001A703023CB5C012B05D86A4961180B708A
:10527000694BE3181A700121684B694AE1546123B4
:10528000D05C431E9841674BE31858706548215421
:10529000D06C997058604931525CFF2A01D100F0FE
:1052A0004DFEDA6001225E491A724A328A5CFF2A98
:1052B00001D100F047FE5A61012259491A74086D64
:1052C0001A76D861B6231B01E2545D23CB5C01261C
:1052D000591E8B41544961184B70534B5349E2544A
:1052E000534A544B8A589A4200D01DE50125524B2F
:1052F0008026E554B533FF33E55410234A4A76003F
:10530000A718BB804D4B1022E01831F049F84C4BE8
:1053100032003E834B49BD70E01831F041F84A4BF2
:10532000BD75E3181E80C8231B0132004749E018F1
:1053300031F036F80422464B4649E3181D70464BBF
:105340008027E3181A80454BE01831F029F8D8235C
:105350001B01E3181D70424B3200E3181E80414BC5
:105360004149E01831F01CF8404B8022E3181D70D1
:105370003F4B4049E3181F80E9231B01E01831F03F
:105380000FF83D4B8022E3181D703C4B3C49E3185D
:105390001F803C4BE01831F003F8F1231B01E318A8
:1053A0001D70394B8022E3181F80384B3849E018B4
:1053B00030F0F6FF374B8022E3181D70364B37492B
:1053C000E3181F80364BE01830F0EAFF354B80229F
:1053D000E3181D70344B3549E3181F8085235B01AA
:1053E000E01830F0DDFF324B3200E3181D70314B16
:1053F0003149E3181E80314BFF3EE01830F0D0FFFA
:1054000089235B01E3181D708EE4C0466C0A00001E
:10541000740A00007D0A00007C0A000024120000CB
:1054200000EC1F1028120000620B000000F01F109B
:1054300094060000EFBEADDEAC090000680B000072
:105440007C0B000010F01F107E0C000010F11F10EC
:105450007C0C000010F21F10820D0000840D000073
:105460008A0D00008C0D000014F21F10880D000042
:105470008E0E000014F31F108C0E0000120F00009F
:1054800094F31F10140F0000960F0000980F0000F7
:1054900014F41F10940F00001A10000094F41F1051
:1054A0001C100000181000009E10000014F51F10C2
:1054B0009C1000002211000094F51F102411000020
:1054C000CA2301225B00E254B94B5A78FF2A01D16A
:1054D00000F03CFD23009933FF335A60CC220121B8
:1054E0005200A154B24A9278FF2A01D100F032FD55
:1054F000DA6001221A72AE4AD278FF2A01D100F096
:105500004BFC5A6101221A74A94A1279FF2A01D16F
:1055100000F046FCDA6101221A76A54A5279FF2A88
:1055200001D100F041FC5A6222000121B932FF3260
:1055300011709F4A9279FF2A01D100F039FCDA629A
:1055400022000121C132FF321170994AD279FF2A1B
:1055500001D100F031FC5A6322000121C932FF322F
:105560001170934A127AFF2A01D100F029FCDA6304
:1055700022000121D132FF3211708D4A527AFF2A66
:1055800001D100F021FC5A6422000121D932FF32FE
:105590001170874A927AFF2A01D100F019FCDA646F
:1055A00022000121E132FF321170814AD27AFF2AB2
:1055B00001D100F011FC5A6522000121E932FF32CD
:1055C00011707B4A127BFF2A01D100F009FCDA65D9
:1055D00022000121F132FF321170754A527BFF2AFD
:1055E00001D100F043FC5A6622000121F932FF325A
:1055F00011706F4A927BFF2A01D100F03BFCDA6602
:10560000802201219200A2181170694AD27BFF2AE0
:1056100001D100F033FC5A67822201219200A218C6
:105620001170634A127CFF2A01D100F02BFCDA676B
:10563000842301229B00E3181A705D4B5B7CFF2BD7
:1056400001D100F023FC87229200A2181360862368
:1056500001229B00E3181A70554B9B7CFF2B01D154
:1056600000F018FC89229200A218136088230122FE
:105670009B00E3181A70B1239B00E25428234C4985
:10568000C85CB2239B00E3185870B22080002254FB
:10569000086A9A705860087F1A72D860487F1A7436
:1056A0005861C86A1A76D861486A5862BA239B0062
:1056B000E3181A70CB7C0C2B00D834E33C4B1B7DD9
:1056C000102B00D823E33B4B19780C2900D907E3B2
:1056D000BF22BF2501209200A218AD005170605575
:1056E0005D68107195609D6810731561DD681B69B8
:1056F0009561107513621077C9239B00C922E318C6
:10570000597001219200A1542B494A6888689A6017
:1057100001221861C86809691A711A7398611A75AB
:1057200019621A77224B5B7D032B06D82349611837
:105730000B70D2239B00E3181A701D4B9B7D052B29
:1057400006D81F4AA218137001221E4BE3181A70C4
:10575000D423174A9B009169E3181960D3210123D0
:105760003020890061180B701749105C61180860BF
:10577000EB213120C90061180B701449105C6118CD
:105780000860EC21C90061180B703221505C10498F
:10579000012661180870ED21C90061180B70516B6A
:1057A0000C4AA21811600C4AA2181370FFF737F8C0
:1057B00000E41F1038E41F104CE41F1049030000E0
:1057C0004B0300004A0300005C0700006407000070
:1057D000690700006C0700006A070000212201230E
:1057E0002100A354914A24311278042A00D86EE291
:1057F0008E4B5B78022B00D860E28C4B9B78042B9D
:1058000000D857E2894AD378CB7101238B71107984
:105810000B7248728C2189006354507904316118ED
:1058200048608D208000235490790B72C860D07935
:105830000B744861107A0B76C861507A48629520E3
:10584000800020180370907AC8629720800020188A
:105850000370D07A48639920800020180370107B71
:10586000C8639B20800020180370507B48649D20F3
:10587000800020180370907BC8649F20800020184F
:105880000370D07B4865A120800020180370107C35
:10589000C865A320800020180370507C4866A520AE
:1058A000800020180370907CC866A7208000201814
:1058B0000370D07C4867A920800020180370107DF9
:1058C000C867AB21890061180B70AE21507D89003B
:1058D00061180860AD21890061180B70B021907DBE
:1058E000890061180860AF21890061180B704021A0
:1058F0006354D17DC020E1642100800044310B71EC
:1059000060658B73127E0C2A00D8D0E147490122D2
:105910004B7EA366230064331A70C0239B00236769
:1059200023006E331A708B7E0C2B00D8B8E18423D1
:105930003E49C020CA7E8000E2502300012280330D
:105940001A708C23E05023008A331A700B7F0C2BC3
:1059500000D89EE1A0233549C0204A7F8000E25054
:10596000230001229C331A70A823E0502300A633A1
:105970001A708B7F0C2B00D884E1BC232B4990201C
:10598000CA7F4001E25023000122B8331A70C423B9
:10599000E0502300C2331A702023CB5C0C2B00D8BC
:1059A00069E1212321499020CA5CB733E2502300EA
:1059B0000122D4331A70E0234001E0502300DE338B
:1059C0001A702223CB5C0C2B00D84DE123231749FE
:1059D0009020CA5CD133E25023000122F0331A70C8
:1059E000FC234001E0502300FA331A702423CB5CDF
:1059F0000C2B00D831E125230C499020CA5CEB33F5
:105A0000E250230001220D33FF331A708C23400132
:105A10005B00E05023001733FF331A702623CB5C62
:105A20000C2B00D80EE10126FEF7D7FE00E01F1078
:105A3000ED4B1F78002F01D1FEF712FFEE2201215E
:105A40005B68D200A1541D2B01D901235B42E74AB8
:105A5000A1184B600123A354E34A127A032A01D808
:105A60004A720B72E04B5B7A0C2B02D8CB7201238B
:105A70008B72DD4B9A7A0A6101220A73D87A0A7511
:105A80008861187B0A77086218698862F320C00071
:105A90002018027058690863F420C00020180270B2
:105AA00098698863F520C00020180270D8690864DE
:105AB000F620C00020180270186A8864F720C00021
:105AC00020180270586A0865F820C000201802707B
:105AD000986A8865F920C00020180270D86A0866A4
