:020000041000EA
:1000000000B5324B212058609868022188439860DF
:10001000D860186158612E4B002199600221596106
:100020000121F02299502B49196001219960352056
:1000300000F044F80222904214D00621196600F024
:1000400034F8196E01211966002018661A6600F04E
:100050002CF8196E196E196E052000F02FF8012189
:100060000842F9D1002199601B49196000215960AB
:100070001A491B48016001219960EB211966A021F2
:10008000196600F012F800219960164914480160C1
:100090000121996001BC002800D000471248134993
:1000A000086003C880F30888084703B5996A0420EC
:1000B0000142FBD001200142F8D103BD02B5186610
:1000C0001866FFF7F2FF186E186E02BD00000240BE
:1000D000000000180000070000035F00212200005C
:1000E000F4000018222000A00001001008ED00E03C
:1000F00000000000000000000000000074B24E7A12
:1001000000200420F7010010C3010010C5010010F9
:10011000C1010010C1010010C1010010C101001097
:10012000C1010010C1010010C1010010C701001081
:10013000C1010010C1010010C9010010CB01001065
:10014000CD010010CD010010CD010010CD01001037
:10015000CD010010CD010010CD010010CD01001027
:10016000CD010010CD010010CD010010CD01001017
:10017000CD010010CD010010CD010010CD01001007
:10018000CD010010CD010010CD010010CD010010F7
:10019000CD010010CD010010CD010010CD010010E7
:1001A000CD010010CD010010CD010010CD010010D7
:1001B000CD010010CD010010CD010010CD010010C7
:1001C00000BE00BE00BE00BE00BE00BEEFF3058054
:1001D000103800BEF2EB887194CB0A1000CC0A10E4
:1001E0003402001090A31AE700201F49086006C8D7
:1001F00081F3088810471D48006800282FD10DA4FE
:100200000ECC002902D000F012F8F9E71849194A7B
:10021000002000E001C19142FCD1174988471749ED
:1002200088471749884700BEFDE701C901C29A42C5
:10023000FBD3704700CC0A10C0000020083D00200E
:1002400048080B10000004200000042048080B1090
:10025000001004200010042000000000704709482E
:1002600031F0F4FE0047000008ED00E0000000D08F
:10027000183D00209C5D01205D0703100503001060
:10028000910803105756000006005250ABB360535C
:10029000D081051006005250861C0302E081051033
:1002A000060052505422A29DEC81051005005250C8
:1002B000DE65F46848080B10F8B5C046044B10B56D
:1002C000002B03D00349044800E000BF10BDC04626
:1002D00000000000383B0120482B051010B533F01A
:1002E0006BFF182032F07AFF040000F077FC20004A
:1002F00000F07EFC200000F019FD10BD10B551F09B
:100300009DF90000882010B5400032F067FF04001E
:1003100000F084F8200000F0D1FA044833F020FF08
:10032000200000F0D3F8002010BDC046DD02001010
:10033000F0B5C646742300B59046CB5A028A040035
:100340000D009A420AD0428A9A4207D0214B1A687D
:100350005B688261C36180BCB846F0BDA669E7698D
:1003600033003B4312D01C4B5A6A9742F3D89B6A26
:10037000B3421FD37423228AEB5A9A421DD0628A59
:100380009A42E8D1154803F0F1FBE4E72FF062FC54
:100390000027134E802336184F411B069F4202D37D
:1003A0000126104F76420C4BA661E7615A6A9742CC
:1003B000D1D8DCE79742DDD1CDE7404643425841F2
:1003C000094B40421840094B9C46604403F0CEFB69
:1003D000C1E7C046507F051000400540E1E437F713
:1003E00000093D00FFFFFF7FD81DA2A3CD66D543C6
:1003F00070B5084D28004FF073FC074C002801D160
:10040000200070BD200002F06DFB28004FF084FC3E
:10041000F6E7C046B4400020B08A0020F8B50022BC
:100420000023040005210CC000F0F8FC0023E422A6
:10043000A3502200E43253609360F022A3541F4B78
:100440001F4F1868596823001E4DF0331032986012
:10045000D960A5509861D96138004FF041FC1A4E1F
:1004600000281CD1DC2032F0B9FE0500052100F087
:10047000D5FC3000290003F05BF838004FF030FC69
:10048000002813D1DC2032F0A9FE0500052100F080
:10049000C5FC3000290003F04FF82000F8BD300003
:1004A00002F020FB38004FF037FCDBE7300002F0B1
:1004B00019FB38004FF030FCE4E7C046507F0510D0
:1004C000B44000200C020C01B08A0020F0B5DE46DA
:1004D000454657464E46E0B587B00700FFF788FF10
:1004E00003F028F80600FFF783FF03F027F88046A3
:1004F000FFF77EFF03F01AF8A54DA64C002879D02F
:10050000F0239846A44BB8440193A44B9946A44BBE
:100510009B46F0239A4628004FF0E2FB002831D199
:10052000200002F00DFB48464FF0DAFB002837D1DF
:1005300048464FF0D5FB00283AD1584602F094FACD
:10054000300001F029F95346FB5C002B34D17433A1
:10055000F35A002B36D143469868D96803000B4301
:1005600037D0904B5A6A9142D5D89B6A834201D2C8
:100570009142D0D0012352462800BB544FF0B0FB2B
:100580000028CDD0200002F0ADFA28004FF0C4FBC7
:10059000200002F0D5FA48464FF0A2FB0028C7D051
:1005A00048464FF0B9FB48464FF09AFB0028C4D0AC
:1005B00048464FF0B1FBC0E7012231004046FFF74B
:1005C000B7FEA8E74146019B1A685B688A60CB606A
:1005D000A1E72FF03FFB00233222801859418023EE
:1005E0001B06994202D301206F494042434698605E
:1005F000D960B6E7E42399464346723303937223E6
:100600009C46B44463460293F0239846624BB94437
:10061000B844019328004FF063FB002865D1200007
:1006200002F08EFA3B689B467B689A4600F0F2FB2C
:100630008A4563D860D0300001F0AEF8300001F098
:100640006DF9300001F058FAF023FB5C002B5AD111
:100650007423F35A002B6AD04146019B1A685B68E9
:100660008A60CB600021484602F01CF9300000F09F
:100670002FFE0021484602F02DF91022029903981E
:1006800032F0A6FD300002F0B9F88246300001F0E9
:100690000FFC010050464BF029FA28004FF020FBD8
:1006A00000283DD1200002F04BFF28004FF018FB3E
:1006B00000282ED1200002F04BFF4BF003FA01215D
:1006C000484602F007F901200021404234F0D4F9F5
:1006D00000F0A0FB64220023801859413860796043
:1006E00028004FF0FDFA002899D0200002F0FAF916
:1006F00028004FF011FB92E783459CD9322000215E
:100700002FF0A8F986E7002231004046FFF710FEDF
:10071000A8E7200002F0E6F928004FF0FDFAC9E74B
:10072000200002F0DFF928004FF0F6FABAE743465E
:100730009A68DB6811000492059319430FD0194998
:10074000059B486A9C4683428CD88B6A049A9342E4
:1007500001D2844586D0F0230122FA5482E72FF09B
:1007600079FA3222002312184B4111001A0080231B
:10077000049105921B069A4204D301220A4B52426D
:10078000049205930499059A43469960DA60D6E786
:10079000B4400020B08A0020507F0510AC400020FB
:1007A0007C85002000400540FFFFFF7F70B503F00F
:1007B000F1F93D4B984260D03C4B984233D0002831
:1007C00001D0002030E03A4D28004FF089FA394E30
:1007D000002836D1300002F0ADFE040000F0DCFF4E
:1007E00028004FF07DFA002832D1334B8020F25C94
:1007F0007423E15A40000840012A16D0032A2ED063
:10080000023AD2B2002834D08B053CD44B0742D4F4
:100810000B0742D4CB0742D48B0742D406200906EB
:1008200002D4002000E0022070BD80239B000B401A
:10083000002824D0002BC4D07223E35C1A40501C43
:10084000F2E7300002F04EF928004FF065FAC1E7F8
:10085000300002F047F928004FF05EFAC5E70028A3
:10086000AFD08905ADD572230120E35C184040006C
:10087000DAE7012ACAD98B05C8D50120D4E71800C8
:10088000431E9841D0E77223E35CDB07CBD4012AF7
:10089000BCD90120C8E70320C6E70720C4E704202D
:1008A000C2E70520C0E7C046A58477E7E1E437F753
:1008B000B4400020B08A00205A180000F8B5974FC5
:1008C000040038004FF00CFA954E002800D00BE1E0
:1008D000300002F02FFE050000F0F6FAFFF766FF89
:1008E000012800D1E9E000DCE0E0022800D10DE1C0
:1008F000C31E042B0DD8D0228A49AA58CE5C537847
:10090000B34203D02800567001F010F830004BF0CD
:10091000C9F83DF03DF90C2032F060FC05000C22D6
:10092000002132F04FFC804BE43429002B60002280
:10093000200002F05FF8082032F050FC00257B4BCD
:100940000100036000224560200002F053F82420DB
:1009500032F044FC06002422002132F033FC744BB8
:10096000310033600022200002F044F80C2032F005
:1009700035FC704B010003600022456005722000C9
:1009800002F038F80C2032F029FC6B4B01000360B8
:10099000002245600572200002F02CF8242032F07D
:1009A0001DFC05002422002132F00CFC634B2900C1
:1009B0002B600022200002F01DF80C2032F00EFC0B
:1009C00005000C22002132F0FDFB5D4B29002B605D
:1009D0000022200002F00EF8202032F0FFFB05007C
:1009E0002022002132F0EEFB564B29002B60002222
:1009F000200001F0FFFF542032F0F0FB05005422EC
:100A0000002132F0DFFB504B29002B600022200038
:100A100001F0F0FF302032F0E1FB05003022002130
:100A200032F0D0FB494B29002B600022200001F05E
:100A3000E1FF242032F0D2FB05002422002132F015
:100A4000C1FB434B29002B600022200001F0D2FFA4
:100A50000C2032F0C3FB05000C22002132F0B2FB67
:100A60003C4B29002B600122200001F0C3FF142021
:100A700032F0B4FB05001422002132F0A3FB364B08
:100A800029002B600022200001F0B4FF282032F062
:100A9000A5FB05002822002132F094FB2F4B2900F2
:100AA0002B600022200001F0A5FFF8BD002800D037
:100AB0002FE7D023EB585E7828E738004FF010F985
:100AC000002818D10121300002F022FDFF204AF059
:100AD000E9FF234D28004FF003F9002812D100212F
:100AE000204801F0AFFF14E7300001F0FBFF3800B1
:100AF0004FF012F9ECE6300001F0F4FF38004FF04F
:100B00000BF9DFE728004FF007F9E8E7164831F066
:100B10009DFA0021030008009847C046B440002019
:100B2000B08A0020482B05106C6605103067051050
:100B300084680510E4680510906705108C6905103D
:100B4000E869051080710510DC710510A0720510B0
:100B5000FC720510107005103C72051058730510DA
:100B6000AC4000207C8500205542000030B5164A7C
:100B70008FB01368591C1160002B07D10121134A53
:100B80004942116053609360D3601361104B1C683D
:100B9000621C1A60002C01D00FB030BD38220D4904
:100BA000684632F015FB0C4D38202C606C60AC6050
:100BB00032F014FB04003822383469462860AC60F7
:100BC00032F006FB6C60E7E7A44000208C40002078
:100BD000A0400020742C051058B6002000220023ED
:100BE0000260436000238360C36003617047C046B6
:100BF0000830F8B505008E20C00032F0EFFA8E22E2
:100C000004000021D20032F0DDFA3F4B00262360C1
:100C1000012323738A23DB00E218083BE2500833E8
:100C2000E65421000222280001F0E4FEE6208000C4
:100C300032F0D4FAE62204000021920032F0C2FA27
:100C4000324B20002360CA230A225B00C530E250E9
:100C5000FF3043F0A3FFDF239B00E654E31821009D
:100C60005E601E6102229B60DB60280001F0C2FE14
:100C7000102032F0B3FA264B264F866006730360CD
:100C8000040038004FF02CF8234E002835D1234BB8
:100C90002100F35C28002371022201F0ABFE0C203E
:100CA00032F09CFA04000C22002132F08BFA1C4B2B
:100CB000210023602800022201F09CFE142032F063
:100CC0008DFA04001422002132F07CFA154B210029
:100CD00023602800022201F08DFEB42032F07EFA5B
:100CE0000400B422002132F06DFA0F4B28000222DA
:100CF0002100236001F07EFEF8BD300001F0F2FE1D
:100D000038004FF009F8C2E7346C0510A06F0510E9
:100D1000B8700510B4400020B08A0020ED0C00002F
:100D2000CC660510F46705101C710510F8B5082392
:100D3000CE464746994606006424002580B5814486
:100D400033687768984600F065F88F420AD93220F8
:100D500000212EF07FFE33687768984600F05AF83D
:100D60008F42F4D88F4201D18045F0D80221484605
:100D700001F0B0FD00F04EF800196941306071607B
:100D8000DEE7C04630B5164A8FB01368591C1160B3
:100D9000002B07D10121134A49421160536093602F
:100DA000D3601361104B1C68621C1A60002C01D0C8
:100DB0000FB030BD38220D49684632F009FA0C4DAB
:100DC00038202C606C60AC6032F008FA04003822E5
:100DD000383469462860AC6032F0FAF96C60E7E7B5
:100DE000A44000208C400020A0400020AC2C051026
:100DF00058B6002010B52EF02DFF002905D0FA229C
:100E00000023920031F0BAF910BDFA21890031F0C7
:100E100077F9F9E710B52EF01DFF10BD70B500236E
:100E2000040060250020224AC9B2A0702171A0717F
:100E3000E26022612380A360A38261556221605435
:100E40000E31A266E2666366635202316054A267A5
:100E5000E2678022174D63672800A3524EF040FFDF
:100E600000280FD1D023144E2800E6504EF038FF52
:100E7000002815D1D422114B2000A350D8230022E2
:100E8000E25470BD0E4801F02DFE28004EF044FFE4
:100E9000D023094E2800E6504EF022FF0028E9D06A
:100EA000084BF01801F01EFE28004EF035FFE1E778
:100EB000FF7FFF7FB4400020A68F0020B88F002066
:100EC000B08A00200AFBFFFFF8B5CE464746E34C48
:100ED00080B5050020004EF003FFE14F002800D050
:100EE000E2E10C2032F07AF9CC23DB00FA581D2A1B
:100EF00000D8D5E1FF23037000234360012484233D
:100F00000481E8500C2032F069F9CD23DB00FB5856
:100F10001D2B00D8C1E1FF230024037002230381AD
:100F20008633E85044600C2032F058F9CE23DB00C1
:100F3000FA581D2A00D8ACE1FF2303700023436058
:100F4000042303818833E8500C2032F047F9CF2383
:100F5000DB00FA581D2A00D897E1FF230370002315
:100F60004360082303818833E8500C2032F036F9BF
:100F7000D023DB00FA581D2A00D882E1FF2303703A
:100F800000234360012494230481E8500C2032F0B4
:100F900025F9D123DB00FB581D2B00D86EE1FF2380
:100FA00000240370022303819633E85044600C2030
:100FB00032F014F9D223DB00FA581D2A00D859E187
:100FC000FF23037000234360042303819833E85018
:100FD0000C2032F003F9D323DB00FA581D2A00D885
:100FE00044E1FF2303700023436008230381983307
:100FF000E8500C2032F0F2F8D423DB00FA581D2A16
:1010000000D82FE1FF2303700023436010230381E6
:101010009433E8500C2032F0E1F8D523DB00FA5885
:101020001D2A00D815E1FF2303700023436020230D
:1010300003818833E8500C2032F0D0F8D623DB004F
:10104000FA581D2A00D800E1FF23037000234360F3
:10105000402303816C33E8500C2032F0BFF8D723D3
:10106000DB00FA581D2A00D8EBE0FF2303700023B1
:101070004360802303813033E8500C2032F0AEF817
:10108000D823DB00FA581D2A00D8D6E0FF230370CE
:101090000023436080235B0003814C3BE8500C201D
:1010A00032F09CF8D923DB00FA581D2A00D8C0E0A2
:1010B000FF2303700023436080239B000381493B8F
:1010C000FF3BE8500C2032F089F8DA23DB00FA58B5
:1010D0001D2A00D8A9E0FF2303700023436080236A
:1010E000DB000381BC23E8500C2032F077F8DB23CF
:1010F000DB00FA581D2A00D893E0FF230370002379
:10110000436080231B010381C023E8500C2032F090
:1011100065F8DC23DB00FA581D2A00D87DE0FF23A8
:1011200003700023436080235B010381C423E850E4
:101130000C2032F053F8DD23DB00FA581D2A68D961
:10114000FF230370002343608023C8249B01038195
:101150002851482032F046F88822AA588423426059
:101160008C22AA58EB5882609022AA580360C26071
:101170009422AA58CC2602619822AA5842619C2245
:10118000AA588261A022AA58C261A422AA58026267
:10119000A822AA584262AC22AA588262B022AA5857
:1011A000C262B422AA580263B822AA584263BC227F
:1011B000AA588263C022AA58C263C422AA580264F1
:1011C0002A5900244264CC22A850CB3A9146D0221E
:1011D0001206904601E0AB591B591878FF280CD035
:1011E0002DF022FCAB5942461B59012118784B4681
:1011F0008340936200222DF0BFFB0434482CEAD1D7
:10120000DE24E40038591D2855D9C0BCB946B04683
:10121000F8BD01230270934095E7012302709340CB
:1012200080E70123027093406AE701230270934034
:1012300054E70123027093403DE70123027093407D
:1012400027E701230270934012E7012302709340C5
:10125000FDE6012302709340E8E6C046B44000205A
:10126000B08A0020012302709340CEE60123027071
:101270009340B9E6012302709340A4E69C400370BA
:1012800090E60123027093407BE6012302709340B5
:1012900066E601230270934051E69C4003703DE6F0
:1012A00001230270934028E6380001F01BFC200067
:1012B0004EF032FD15E62DF0B7FB01233859D02250
:1012C000834012069362012100222DF055FB9CE71A
:1012D000F0B50400C6462100102200B5623072311C
:1012E00031F076FFD023E258D379002B58D17233F6
:1012F000E35C517A002916D084211D006058043126
:10130000615806890989007A0D40A84605001F002A
:10131000C9B20D43AB4337423FD14146002900D00B
:101320000343722163545079042855D00321194096
:10133000022900D11EE1032900D1C2E001295DD1BB
:1013400005210126BB4F8C4604310C253E702B40F5
:10135000082B5DD00C2B00D147E1042B00D026E1F7
:101360000321B54B197061467223E154D37B002BE6
:1013700000D06FE1D378012B00D181E0022B5BD04C
:101380006378002B01D1AD4BA367A378002B01D16B
:10139000AA4BE36780BCB846F0BD0B43DBB2BCE7A9
:1013A0007223E05C1A330600E1580433E3580D7AE7
:1013B0001B890F891E40D9B22B00B44606000B438F
:1013C0009E433300384200D00B436146002900D0D1
:1013D0002B43722163548CE75078411E012902D9B6
:1013E00019000428C0D103201840022800D1C0E011
:1013F000032800D198E10128A2D001200421002671
:101400000C258C4F8C463E7004312B40082BA1D10B
:101410000420894B18707223E154D37B002BA9D090
:101420000520304009230B40012800D19DE1092B04
:1014300000D14DE10D001AE16378002B00D187E067
:101440000C230B40042B00D189E0083B5A42534146
:101450007B4ADB0394467C226344A35203230B4064
:10146000012B00D183E0023B5A425341744ADB0313
:10147000944663447E22A35272230022E25489E7F9
:10148000A378002B55D00C230B40042B57D0083BDE
:101490005A4253416A4ADB03944678226344A3527A
:1014A00003230B40012B51D0023B5A425341644A63
:1014B000DB03944663447A22A35272230022E2544F
:1014C00068E70C251D4000285AD15A4B013018708E
:1014D000082D00D137E10C2D00D122E10126042D89
:1014E00065D1554B197072230521E154D37B002B34
:1014F00000D13FE7534B1B78032B04D1012101237B
:101500000D00514803700A2129400A2900D0B5E096
:101510004E4B1B78042B00D1D1E0FD210423294040
:101520002B40042B02D10320494B18707223E15445
:1015300020E7424BE3670C230B40042BA7D1002389
:101540007822A35203230B40012BADD10023B2E735
:101550003A4BA3670C230B40042B00D075E7002304
:101560007C22A35203230B40012B00D07BE70023F6
:1015700080E70120062102268C462E4F0431E4E646
:101580002C4F022800D0B6E03978002900D1CDE0F8
:10159000012900D1DEE0052309219C460126082D02
:1015A00000D135E70C2D32D0042D00D1D8E6002132
:1015B000214B19707223E654D37B3100002B00D1EC
:1015C000D8E605233340012B6BD109201D4930405B
:1015D0000B703100012803D11B490B700A213140E7
:1015E000022900D199E031004EE002280FD00328F3
:1015F00000D0A0E0104BD57B187800280CD0032831
:1016000077D07223E154002D00D1B3E608E70A4BEE
:10161000D57B187800286AD1310000201870722319
:10162000E154D37B002B00D1A4E605230E000B4030
:10163000C9E7C0467C5D01207B5D0120FF7FFF7F05
:10164000FF7F00007F5D0120805D01207E5D012025
:101650007D5D012005200840052800D088E0484B2A
:101660001B78032B2ED0FE2508230D400B40082BA2
:1016700000D048E70421434B197044E7082972D190
:10168000414B04391970290006230B40062B0DD15C
:101690003E4B1B78022B0FD0FB2319407223E154E1
:1016A00068E60A213140022950D03100022B00D0D7
:1016B00037E73648037039E79943C9B236E7ED3169
:1016C0002940E1E7F833194009230B40092B35D1B4
:1016D0002C4B1B78012B07D0F72602230E40194014
:1016E000022900D07FE718E09943CDB20BE7032829
:1016F00087D0614638E6032818D13E78002E15D0F1
:10170000012E2CD006230A219C460226082D00D14A
:101710007EE60C2D00D047E76CE71B4B19703100BB
:10172000B2E701211A4B78E701201A4F0421002665
:101730008C46043109E63100154B6EE7012B00D1D0
:10174000DEE60D0093E70921012661E60E4B1970D4
:101750000223AEE7062302269C460A211FE7052343
:1017600009219C46D2E72E003AE7054B1870ABE7FB
:10177000042800D056E6024B01381870A4E7C04692
:101780007F5D0120805D01207E5D01207D5D012067
:101790007B5D01207C5D012070B55D4E0400300052
:1017A0004EF09EFA5B4D002800D0A9E0DE22D20068
:1017B000A9580122D0238A401B0658688243511E33
:1017C0008A417621D20362528422A558C3436968B4
:1017D0000022814301D00822AA5688216158486816
:1017E000184202D009890A4352B28C2161584868D4
:1017F000184202D009890A4352B2902161584868C0
:10180000184202D009890A4352B2722162549422CA
:10181000A15800224868184201D008228A5E982107
:1018200061584868184202D009890A4312B29C21C3
:1018300061584868184202D009890A4312B2A021AF
:1018400061584868184202D009890A4312B2A4219B
:1018500061584868184202D009890A4312B2A82187
:1018600061584868184202D009890A4312B2AC2173
:1018700061584868184202D009890A4312B2B0215F
:1018800061584868184202D009890A4312B2B4214B
:1018900061584868184202D009890A4312B2B82137
:1018A00061584868184202D009890A4312B2BC2123
:1018B00061584868184202D009890A4312B2C0210F
:1018C00061584868184202D009890A4312B2C421FB
:1018D00061584868184202D009890A4312B2C821E7
:1018E00061584868184202D00B891A4312B2742317
:1018F000E252094B0022A367E3678023E25270BDE6
:10190000280001F0EFF830004EF006FA4EE7C0462E
:10191000B4400020B08A0020FF7FFF7F010010B597
:10192000723104302CF07AFA10BDC04670B5094D02
:1019300028004EF0D5F9084C002803D1200001F012
:10194000F5F870BD200001F0CDF828004EF0E4F964
:10195000F4E7C046B4400020B08A0020F8B5050086
:101960000C000E2918D8604A8B00D3589F46D82304
:10197000C35C0D2B10D0D0230121C258D37B4B4028
:10198000D3735A4F5A4E38004EF0AAF9002800D0AF
:1019900093E0300001F0CAF8D823EC54F8BDD82306
:1019A000C35C0E2BF8D0514F38004EF099F9504ED1
:1019B000002800D090E001214E4AB35C4B40B35464
:1019C000D823EB5C0E2BDED1E6E7D0230022C358F0
:1019D000DA70D823C35C012BD3D1DDE7D0230122F9
:1019E000C358DA70D823C35C022BCAD1D4E7D02302
:1019F0000222C358DA70D823C35C032BC1D1CBE7D2
:101A000074228023815A5B010B438352C4E7D023A5
:101A10007422C358805A5978042955D080237422DF
:101A20005B000343AB52B7E7D0230022C3585A717F
:101A3000D823C35C062BA4D1AEE7D823C35C092B03
:101A4000AAD0D0230121C258284FD379284E4B4029
:101A5000D37198E7D823C35C0A2B9DD0D0230121F2
:101A6000C258537A4B4053728BE7D0230322C3589A
:101A70005A71D823C35C0B2B00D082E78CE7D023AC
:101A80000422C3585A71D823C35C0C2B00D078E7CA
:101A900082E7D0230122C3585A71D823C35C072B95
:101AA00000D06EE778E7D0230222C3585A71D823BA
:101AB000C35C082B00D064E76EE7300001F012F839
:101AC00038004EF029F964E7DB7A002BA6D080239A
:101AD0009B010343AB525FE7300001F003F838008D
:101AE0004EF01AF967E7C046E42C0510B440002018
:101AF000B08A0020E50F0000F8B5DE4657464E4696
:101B00004546D023E0B5C3585B7B002B00D0CEE028
:101B1000D433C358597B9C689D69002909D0742629
:101B20001A8AB3461700865B3740BC46974200D1FD
:101B3000DDE02922995C5C6A5D6B002908D074267F
:101B4000B346865B9A8D37001740BA4200D1E7E072
:101B50004522995C1C6C9A6C1D6D002907D0742776
:101B600096B2B446C65B3240944500D1F2E06122A1
:101B7000995CDC6D5A6EDD6E002907D0742796B231
:101B8000B446C65B3240944500D1FDE07D22995CAD
:101B90000B329C6F9E58002909D0083A9D5A0C3A86
:101BA000875A94463A002A40954200D1FEE094229A
:101BB0009C580532995C0B329E58002909D0083A8E
:101BC0009D5A283A875A94463A002A40954200D1B5
:101BD00001E1B0229C580532995C0B329E580029D5
:101BE00009D0083A9D5A443A875A94463A002A4006
:101BF000954200D101E1CC229C580532995C0B3210
:101C00009E58002909D0083A9D5A603A875A94464E
:101C10003A002A40954200D101E1E8229C58053261
:101C2000995C0B329E58002909D0083A9D5A7C3A9B
:101C3000875A94463A002A40954200D101E1822217
:101C400052009C580A22FF32995C0B329E580029A0
:101C500009D0083A9D5A983A875A94463A002A4041
:101C6000954200D1FFE0902252009C582622FF327C
:101C7000995C0B329E58002909D0083A9D5AB43A13
:101C8000875A94463A002A40954200D1FDE09E22B0
:101C900052009C584222FF32995C0B329D58002919
:101CA0000BD1D82300220021C254FFF757FEF0BC0D
:101CB000BB46B246A946A046F8BD7427C65B083AA3
:101CC0009A5A330013409A42EBD1E3B299467223F9
:101CD0009846C35C9C461C40A145E2D17624045B37
:101CE000ABB22540AB42DCD19643C6532CE0E2B206
:101CF000914672229046825C14404C4500D018E711
:101D0000AFB2B9467627C75B3D40A94500D010E782
:101D100063469E435B46C6524346A243C254C4E751
:101D2000E7B2B9467227B846C75DBC463C40A145FC
:101D300000D00DE77627C75BACB23D40AC4200D087
:101D400006E75B469643C6524A466346934342467D
:101D50008354AAE7E2B2924672229146825C904690
:101D60001440A24500D002E77624045BAAB22540C5
:101D7000AA4200D0FBE663469E43C6535246434602
:101D800093434A46835490E7E2B2924672229146C8
:101D9000825C90461440A24500D0F7E67624045BAE
:101DA000AAB22540AA4200D0F0E6E4E7E2B29246A9
:101DB00072229146825C90461440A24500D0F6E61D
:101DC0007624045BB2B22640B24200D0EFE663460E
:101DD000AF43C752D2E7E2B2924672229146825C8A
:101DE00090461440A24500D0F3E67624045BB2B2DC
:101DF0002640B24200D0ECE6E9E7E2B29246722217
:101E00009146825C90461440A24500D0F3E67624C9
:101E1000045BB2B22640B24200D0ECE6D7E7E2B2B1
:101E2000924672229146825C90461440A24500D0B0
:101E3000F3E67624045BB2B22640B24200D0ECE670
:101E4000C5E7E2B2924672229146825C9046144007
:101E5000A24500D0F3E67624045BB2B22640B2423B
:101E600000D0ECE6B3E7E2B2924672229146825C81
:101E700090461440A24500D0F5E67624045BB2B249
:101E80002640B24200D0EEE6A1E7E2B292467222CC
:101E90009146825C90461440A24500D0F7E6762435
:101EA000045BB2B22640B24200D0F0E68FE7C046F3
:101EB000D023C35813205B78042B02D8014A5B005F
:101EC000985A7047B42D0510722330B5C15C633B3E
:101ED00002000B400A2B55D832499B00CB589F4635
:101EE0000323314883707423D45A723B61000B4042
:101EF0000121A5080D402B4365080D40AD002B4383
:101F0000E5080D40ED002B4325090D402D012B4325
:101F100065090D406D012B43A5090D40AD012B4313
:101F2000E5090D40ED012B43250A0D402D022B4301
:101F3000650A0D406D022B43A50A0D40AD022B43EF
:101F4000E50A0D40ED022B43250B0D40640B2D03DC
:101F500021402B4349030B430188890B89030B4321
:101F600003807823D35A1B0AC3707A23D35A1B0ADF
:101F700003717C23D35A1B0A43717E23D35A1B0A55
:101F8000837130BD0823ACE70023AAE70423A8E748
:101F90000623A6E70723A4E70523A2E70223A0E779
:101FA00001239EE7202D051060350020722370B5B7
:101FB000C25C633B010013400A2B51D8304A9B009E
:101FC000D3589F4603232F48012283707423022590
:101FD000CC5A6600A308354013402B4365081540D2
:101FE000AD002B43E5081540ED002B4325091540B6
:101FF0002D012B43650915406D012B43A5091540A3
:10200000AD012B43E5091540ED012B43250A154091
:102010002D022B43650A15406D022B43A50A15407E
:10202000AD022B43E50A1540ED022B43250B15406D
:10203000640B2D0322402B43520313430380782368
:10204000CB5A1B0AC3707A23CB5A1B0A03717C2319
:10205000CB5A1B0A43717E23CB5A1B0A837170BD76
:102060000823B0E70023AEE70423ACE70623AAE782
:102070000723A8E70523A6E70223A4E70123A2E795
:102080004C2D051018350020722370B5C55C023345
:10209000C15AAA08733B6E081A401E40760092008F
:1020A00032431E002E40ED081D40ED0032432A430E
:1020B0004D0A1D402D012A430D0A1D406D012A4382
:1020C0008D0A1D40AD012A43CD0A1D40ED012A4372
:1020D0001D00040020480D4082700A092D011A409D
:1020E0002A434D091D406D002A430D0B1D40AD00D4
:1020F0002A434D081D406D012A438D081D40AD0146
:102100002A43CD081D40ED012A43C270134D7822A9
:10211000AC46A25A6244C2807A22A55A104A551B84
:1021200005817C25655B654445817E25655B521B89
:1021300082812278002A06D07F33E35C03718123F9
:10214000E35C437170BD8A09C9091A400B405242D1
:102150005B420271DBB2F4E7043500200080FFFF30
:10216000FF7F0000F0B5DE4657464E4645467223D7
:10217000E0B5C25C633B83B013400A2B00D992E008
:10218000544A9B00D3589F46032374220125865A44
:10219000514CB7082F403F013B432F0037407F0190
:1021A0003B4377082F40BF013B43F7082F40FF0117
:1021B0003B4363717309B1092B4037092F40294014
:1021C000F2095B002A403B438F0001923B43D7005A
:1021D0000F223B43A77997433B43A371B20A730B8A
:1021E0002B402A40370A99469046730AF20A360B6A
:1021F0002B402A402F403540D02686590093F67A4E
:102200009446002E02D13E004F46B146334A2D027D
:1022100016789246721C934652465B4613704A46A5
:10222000009B12015B011343424692011343624635
:10223000D20113432B430F257F02B6023B433343A6
:10224000E68835402B43E3807823C35A1B0A63702A
:102250007A23C35A1B0AA3707C23C35A1B0AE37058
:102260007E23C35A1B0A23710378002B2BD08023B3
:10227000C35C23728123C25C8023200018496272F0
:102280000A785B421A430A700A7923301343082202
:102290000B7130F09DFF200003B0F0BCBB46B2468E
:1022A000A946A046F0BD0F236FE706236DE707237D
:1022B0006BE7052369E7022367E7002365E704234B
:1022C00063E7012361E749422172019B5A42D2B27E
:1022D000D2E7C046782D051020350020775D01201B
:1022E000BC40002070B5C14C050020004DF0F8FC4A
:1022F000002844D1BE4B202200211C00180030F0E1
:1023000061FF21220021631E99545132AA5C0131E0
:102310001800114200D093E10223134200D054E18F
:10232000530700D540E1120700D52BE174230122A9
:10233000EB5A1A4200D013E19A0700D5FEE05A0783
:1023400000D5E9E01A0700D5D4E0DA0600D5BFE0F1
:102350009A0600D5AAE05A0600D595E01A0600D5DF
:1023600080E0DA0500D56BE09A0557D45A0543D4CE
:102370001A052FD4DA041BD49B0407D470BD9D48E2
:1023800000F0B0FB20004DF0C7FCB3E7994B9A4A30
:102390009B5CE72B00D81DE202221833DBB20270EF
:1023A00000220C2B01D8954AD25C2123C254E5E7C8
:1023B000904A9349525CE72A00D800E20221183281
:1023C000D2B2017000210C2A01D88C49895C2122EB
:1023D0008154D1E7874A8B49525CE72A00D8E3E170
:1023E00002211832D2B2017000210C2A01D883498F
:1023F000895C21228154BDE77E4A8349525CE72AE9
:1024000000D8C6E102211832D2B2017000210C2A94
:1024100001D87A49895C21228154A9E7754A7B4910
:10242000525CE72A00D8A9E102211832D2B2017029
:1024300000210C2A01D87149895C2122815495E739
:102440006C4A7349525CE72A00D88CE102211832A9
:10245000D2B2017000210C2A01D86849895C21227E
:10246000815481E7634A6B49525CE72A00D86FE1E7
:1024700002211832D2B2017000210C2A01D85F4922
:10248000895C212281546CE75A4A6349525CE72AED
:1024900000D852E102211832D2B2017000210C2A78
:1024A00001D85649895C2122815457E7514A5B493A
:1024B000525CE72A00D835E102211832D2B201700D
:1024C00000210C2A01D84D49895C2122815442E720
:1024D000484A5349525CE72A00D818E102211832D1
:1024E000D2B2017000210C2A01D84449895C212212
:1024F00081542DE73F4A4B49525CE72A00D8FBE064
:1025000002211832D2B2017000210C2A01D83B49B5
:10251000895C2122815418E7364A4349525CE72AF4
:1025200000D8DEE002211832D2B2017000210C2A5C
:1025300001D83249895C2122815403E72D4A3B4965
:10254000525CE72A00D8C1E002211832D2B20170F1
:1025500000210C2A01D82949895C21228154EEE608
:102560002449334C095DE72900D8A5E01831013230
:10257000C9B2027000220C2901D8204A525C2121E4
:102580004254D9E61B4B2B4A9B5CE72B00D888E0D2
:1025900002221833DBB2027000220C2B01D8174A3A
:1025A000D25C2123C254C1E6124B23495B5CE72B6A
:1025B0006CD902211833DBB2017000210C2B01D839
:1025C0000E49C95C2123C154ADE60A491B4C095D83
:1025D000E72950D91831C9B2037000230C2901D85A
:1025E000064B5B5C212143549AE6C046B440002070
:1025F000E1340020B08A002084070000A42D0510DB
:102600007C070000740700006C07000064070000EE
:102610005C070000540700004C070000440700005E
:102620003C070000340700002C07000024070000CE
:102630001C070000140700000C070000040700003E
:102640006A486B4C005DE7280CD918300131C0B2E4
:10265000197000230C2801D8664B1B5C21216648A9
:10266000435459E60726C4083040197081401C19AC
:102670001800617050E607260123CC083140037032
:102680008B40041961780B43637049E607260121EA
:10269000DC08334001709940041963781943617074
:1026A00041E607240122D908234002709A404118CC
:1026B0004B781A434A7039E60725CC082940027046
:1026C0008A40041961780A43627035E607250121C2
:1026D000D4082A4001709140041962781143617056
:1026E0002DE607250121D4082A40017091400419E4
:1026F00062781143617025E607250121D4082A403C
:102700000170914004196278114361701DE607253C
:102710000121D4082A4001709140041962781143C4
:10272000617015E607250121D4082A400170914007
:1027300004196278114361700DE607250121D40860
:102740002A4001709140041962781143617005E6D6
:1027500007250121D4082A400170914004196278AC
:1027600011436170FDE507250121D4082A4001705D
:1027700091400419627811436170F5E50725012144
:10278000D4082A40017091400419627811436170A5
:10279000ECE507250121D4082A4001709140041975
:1027A000627811436170E3E507250121D4082A40CE
:1027B000017091400419627811436170DAE50725D0
:1027C0000121D4082A400170914004196278114314
:1027D0006170D1E507240122D908234002709A4094
:1027E00041184B781A434A70C8E5C046B08A0020A9
:1027F000FC060000A42D0510E0340020D02310B505
:10280000C3585B78032B0FD006D8002B0FD0012BB9
:1028100007D1FFF7CBFB03E0042B02D1FFF7A2FCAB
:1028200010BDFFF751FBFBE7FFF75CFDF8E7FFF793
:102830002BFCF5E730B5164A8FB01368591C1160B0
:10284000002B07D10121134A494211605360936064
:10285000D3601361104B1C68621C1A60002C01D0FD
:102860000FB030BD38220D49684630F0B1FC0C4D38
:1028700038202C606C60AC6030F0B0FC0400382272
:10288000383469462860AC6030F0A2FC6C60E7E741
:10289000A44000208C400020A0400020C02D051046
:1028A00058B60020F8B54568046807000E00AC4231
:1028B00006D023681A79B24203D00434A542F8D175
:1028C000F8BD186804340368DB6898477D68A54242
:1028D000EFD1F5E7F8B54568046807000E00AC4293
:1028E00006D023681A79B24203D00434A542F8D145
:1028F000F8BD1868043403689B6898477D68A54252
:10290000EFD1F5E7F0B5454657464E46DE46E0B511
:102910000668456888463449AB1B0400924683B07C
:102920009B108B425DD04246921B9146AE423FD0F7
:102930005A00934228D8002300279B46002A3AD108
:1029400053464A461B68BB504B4604339A4643469F
:10295000ED1A2B00BA4453440193002A1CDC002DCD
:1029600004DD2A004146504630F032FC002E19D1D9
:10297000019B276063605B46A36003B0F0BCBB466D
:10298000B246A946A046F0BD184B9B46584630F0CB
:1029900025FC07008344D3E7310038004FF0C2FB29
:1029A000002D0FDCA1683000891B30F023FCDFE72D
:1029B0005A1C0133E8D280239B059A420DD2930022
:1029C0009B46E3E741462A00504630F001FCA168EF
:1029D0003000891B30F00EFCCAE70A0093009B46CA
:1029E000D4E703484DF046FBFFFFFF1FFCFFFF7FCE
:1029F000F82D0510F0B50B68050083B008001B68C2
:102A00000C0017009847002811D0082030F0E6FB92
:102A10000600236801905B68200098476968AB68EE
:102A200034603771994208D040C1696003E00421E5
:102A3000200030F0DFFB03B0F0BD280001AAFFF753
:102A400061FFF8E770B505000C1E01D02C7070BD59
:102A5000042030F0C3FB0600024B03600FF018F8AF
:102A60006E60F3E75C65051010B5406803685B684D
:102A7000984710BD30B5164A8FB01368591C1160C5
:102A8000002B07D10121134A494211605360936022
:102A9000D3601361104B1C68621C1A60002C01D0BB
:102AA0000FB030BD38220D49684630F091FB0C4D17
:102AB00038202C606C60AC6030F090FB0400382251
:102AC000383469462860AC6030F082FB6C60E7E720
:102AD000A44000208C400020A0400020142E0510AF
:102AE00058B6002000230D4A10B503704360836080
:102AF00083500B4B04009E220021C01830F062FB73
:102B0000084843F0E7FDC3235B01E0182CF020FBED
:102B1000054BE01809F020FF200010BD68180000E8
:102B20006C18000088400020D4040000034B10B54E
:102B30009C46604409F0D4FD10BDC046D40400009A
:102B4000F0B5C64600B5BFF35B8FF94B0400C6185D
:102B50003378BFF35B8F002B00D1D7E3C3235B0136
:102B6000C258EFF3108172B61368002BFCD0BFF38C
:102B70005F8FC3235B01E718EE4B7960180098461E
:102B80004DF0AEF8EC4D002800D0C2E3EB4BEC4A20
:102B9000E3181979A9505979EA4AA9509979EA4A6A
:102BA000A950D979E94AA9505A7A197A12020A43E6
:102BB0001204E74912146A50DA7A997A12020A4327
:102BC0001204E44912146A50197BE34AA950597B54
:102BD000E24AA954DA7B997B12020A43197C090460
:102BE00011435A7C12060A43DD496A50DA7C997C0B
:102BF00012020A43197D090411435A7D12060A4341
:102C0000D8496A50DA7D997D12020A43197E090477
:102C100011435A7E12060A43D3496A50DA7E997EDE
:102C200012020A43197F090411435A7F12060A430C
:102C3000CE496A509A7FDB7F1B021343CC4AA2180D
:102C4000127812041A43CB4BE3181B781B0613436C
:102C5000C94AAB50C94BE3181A78C94BE3181B7823
:102C60001B021343C74AA218127812041A43C64B18
:102C7000E3181B781B061343C44AAB50C44BE3183C
:102C80001A78C44BE3181B781B021343C24AA218DC
:102C9000127812041A43C14BE3181B781B06134326
:102CA000BF4AAB50BF4BE3181A78BF4BE3181B78F1
:102CB0001B021343BD4AA218127812041A43BC4BDC
:102CC000E3181B781B061343BA4AAB50BA4BE31800
:102CD0001A78BA4BE3181B781B021343B84AA218A0
:102CE000127812041A43B74BE3181B781B061343E0
:102CF000B54AAB50B54BE3181A78B54BE3181B78BF
:102D00001B021343C5225201A218127812041A435F
:102D1000B04BE3181B781B061343AF4AAB50AF4BC5
:102D2000E3181A78AE4BE3181B781B021343AD4A25
:102D3000A218127812041A43AB4BE3181B781B0637
:102D40001343AA4AAB50AA4BE3181A78A94BE318CD
:102D50001B781B021343A84AA218127812041A43C4
:102D6000A64BE3181B781B061343A54AAB50A54B93
:102D7000E3181A78A44BE3181B781B021343A34AE9
:102D8000A218127812041A43A14BE3181B781B06F1
:102D90001343A04AAB50A04BE3181A789F4BE3189B
:102DA0001B781B0213439E4AA218127812041A437E
:102DB0009C4BE3181B781B0613439B4AAB509B4B61
:102DC000E3181A789A4BE3181B781B021343994AAD
:102DD000A218127812041A43974BE3181B781B06AB
:102DE0001343964AAB50964BE3181A78954BE31869
:102DF0001B781B021343C6225201A2181278120438
:102E00001A43914BE3181B781B0613438F4AAB50B0
:102E10008F4BE3181A788F4BE3181B781B02134370
:102E20008D4AA218127812041A438C4BE3181B78AF
:102E30001B0613438A4AAB508A4BE3181A788A4B15
:102E4000E3181B781B021343884AA2181278120455
:102E50001A43874BE3181B781B061343854AAB5074
:102E6000854BE3181A78854BE3181B781B02134334
:102E7000834AA218127812041A43824BE3181B7873
:102E80001B061343804AAB50804BE3181A78804BE3
:102E9000E3181B781B0213437E4AA218127812040F
:102EA0001A437D4BE3181B781B0613437B4AAB5038
:102EB0007B4BE3181A787B4BE3181B781B021343F8
:102EC000794AA218127812041A43784BE3181B7837
:102ED0001B061343764AAB50764BE3181A78764BB1
:102EE000E3181B781B021343744AA21812781204C9
:102EF0001A43734BE3181B781B061343714AAB50FC
:102F0000714BE3181A78714BE3181B781B021343BB
:102F10006F4AA218127812041A436E4BE3181B78FA
:102F20001B0613436C4AAB506C4BE3181A78D7E07E
:102F30005C180000B4400020B08A00206C1800002B
:102F40001C0D0000240D00002C0D0000340D0000AD
:102F50003C0D0000440D00004C0D0000510D000020
:102F6000540D00005C0D0000640D00006C0D0000AD
:102F70008C1800008D180000740D00008E180000E1
:102F80008F18000090180000911800007C0D0000C0
:102F90009218000093180000941800009518000083
:102FA000840D000096180000971800009818000083
:102FB000991800008C0D00009A1800009B18000062
:102FC0009C1800009D180000940D00009E18000041
:102FD0009F180000A11800009C0D0000A21800001E
:102FE000A3180000A4180000A5180000A40D0000FC
:102FF000A6180000A7180000A8180000A9180000D3
:10300000AC0D0000AA180000AB180000AC180000BE
:10301000AD180000B40D0000AE180000AF1800009D
:10302000B0180000B1180000BC0D0000BA18000074
:10303000BB180000BC180000BD180000D40D000033
:10304000BE180000BF180000C1180000DC0D000011
:10305000B2180000B3180000B4180000B518000042
:10306000C40D0000B6180000B7180000B818000022
:10307000B9180000CC0D0000C2180000C3180000F1
:10308000C4180000C5180000E40D0000C6180000B8
:10309000C7180000C8180000C9180000EC0D000097
:1030A000CA180000CB180000CC180000CD18000092
:1030B000F40D0000CE180000CF180000D01800005A
:1030C000D1180000FC0D0000D2180000D318000039
:1030D000D4180000D5180000040E0000D618000017
:1030E0009A4BE3181B781B021343994AA2181278D3
:1030F00012041A43974BE3181B781B061343964A96
:10310000AB50964BE3181A78954BE3181B781B02CB
:103110001343944AA218127812041A43924BE318EC
:103120001B781B061343914AAB50914BE3181A7856
:10313000904BE3181B781B021343C7225201A218BD
:10314000127812041A438C4BE3181B781B061343A6
:103150008A4AAB508A4BE3181A788A4BE3181B78DB
:103160001B021343884AA218127812041A43874B91
:10317000E3181B781B061343854AAB50854BE318B5
:103180001A78854BE3181B781B021343834AA21855
:10319000127812041A43824BE3181B781B06134360
:1031A000804AAB50804BE3181A78804BE3181B78A9
:1031B0001B0213437E4AA218127812041A437D4B55
:1031C000E3181B781B0613437B4AAB507B4BE31879
:1031D0001A787B4BE3181B781B021343794AA21819
:1031E000127812041A43784BE3181B781B0613431A
:1031F000764AAB50764BE3181A78764BE3181B7877
:103200001B021343744AA218127812041A43734B18
:10321000E3181B781B061343714AAB50714BE3183C
:103220001A78714BE3181B781B0213436F4AA218DC
:10323000127812041A436E4BE3181B781B061343D3
:103240006C4AAB506C4BE3181A786C4BE3181B7844
:103250001B0213436A4AA218127812041A43694BDC
:10326000E3181B781B061343674AAB50674BE31800
:103270001A78674BE3181B781B021343654AA218A0
:10328000127812041A43644BE3181B781B0613438D
:10329000624AAB50624BE3181A78624BE3181B7812
:1032A0001B021343604AA218127812041A435F4BA0
:1032B000E3181B781B0613435D4AAB505D4BE318C4
:1032C0001A785D4BE3181B781B021343C822520186
:1032D000A218127812041A43584BE3181B781B06E5
:1032E0001343574AAB50574BE01809F0F9F9002344
:1032F000BFF35B8FC3223370BFF35B8F5201A158C2
:103300007A68BFF35F8F0B6082F3108880BCB84689
:10331000F0BD00234C4A2B70AB506B60AB604B4B45
:103320009E220021E8182FF04DFF494843F0D2F9C2
:10333000C3235B01E8182BF00BFF424BE81809F0A0
:103340000BFB40464CF0E8FC20E4C046D7180000D8
:10335000D8180000D91800000C0E0000DA18000080
:10336000DB180000DC180000DD180000140E00005F
:10337000DE180000DF180000E11800001C0E00003D
:10338000E2180000E3180000E4180000E51800004F
:10339000240E0000E6180000E7180000E8180000FE
:1033A000E91800002C0E0000EA180000EB180000DD
:1033B000EC180000ED180000340E0000EE180000BC
:1033C000EF180000F0180000F11800003C0E00009B
:1033D000F2180000F3180000F4180000F5180000BF
:1033E000440E0000F6180000F7180000F81800005E
:1033F000F91800004C0E000002190000031900002B
:103400000419000005190000640E000006190000F0
:103410000719000008190000091900006C0E0000CF
:10342000FA180000FB180000FC180000FD1800004E
:10343000540E0000FE180000FF18000001190000E3
:103440005C0E0000D4040000681800006C18000036
:1034500088400020F0B5C6460F0000B582B00600D7
:103460003D0001A843F0DAF83C009E35210001A898
:10347000013443F0D7F8AC42F8D101A843F0EAF8A0
:10348000C3235B010400F158EFF3108372B60A689E
:10349000002AFCD0BFF35F8FC3225201B518114A36
:1034A0006B609046B258A2420FD00F4B9E22F0188C
:1034B00039002FF08DFE43460122F450BFF35B8F9D
:1034C0000A4BF254BFF35B8F6B68C3225201B258B0
:1034D000BFF35F8F0021116083F3108802B080BCBE
:1034E000B846F0BD681800006C1800005C180000B9
:1034F00010B5054843F052F9FA2200200349D200E2
:103500002DF0C2F810BDC0468840002000200420E5
:103510000300054A10B50170991895222C30D2008D
:103520002FF056FE10BDC0468C0700000078704793
:10353000416070474068704781607047806870479D
:1035400010B5202200210C302FF03CFE10BDC046EB
:103550000C30704770B5F74E050030004CF0C0FBE2
:10356000F54C002800D044E200232B706B70AB7048
:10357000EB70F24BE358FF2B00D9FF232B71F04B7C
:10358000E358FF2B00D9FF236B71EE4BE358FF2B61
:1035900000D9FF23AB71EC4BE358FF2B00D9FF237D
:1035A0008022EB71E94B5202E358934200DBE84B77
:1035B0009AB2120A6A7280222B72E64B5202E358C8
:1035C000934200DBE24BAB729AB2E34B120AE35830
:1035D000EA72E24A2B73A25CE14B2800E35CAA7317
:1035E000DE4A6B73A21851782B00E9739178D27878
:1035F00029746A74DB4A1E33A25CAA74D94AA218E1
:103600005178E9749178D27829756A75D64AA25CA6
:10361000AA75D54AA2185178E9759178D278297699
:103620006A76D24AA25CAA76D04AA2185178E97684
:103630009178D27829776A77CD4AA25CAA77CC4A6A
:10364000A2185178E9779178D2789970DA70C94ADE
:10365000A25C1A71C74AA218517859719178D27830
:103660009971DA71C44AA25C1A72C34AA2185178DD
:1036700059729178D2789972DA72C04AA25C1A7340
:10368000BE4AA218517859739178D2789973DA7337
:10369000BB4A1033A25C1A70B94AA218517859700B
:1036A0009178D2789970DA70B64AA25C1A71B54AEC
:1036B000A218517859719178D2789971DA71B24A19
:1036C000A25C1A72B04AA218517859729178D278D5
:1036D0009972DA72AD4AA25C1A73AC4AA218517898
:1036E00059739178D2789973DA73A94A1033A25C2E
:1036F0001A70A74AA218517859709178D2789970A7
:10370000DA70A44AA25C1A71A24AA21851785971BF
:103710009178D2789971DA719F4A0833A25C1A7253
:103720009D4AA218517859729178D2789972DA72BA
:103730009A4AA25C1A73994AA218517859739178DF
:10374000D2789973DA73964AA25C1A70944AA218D6
:10375000517859709178D2789970DA70914A04331F
:10376000A25C1A708F4AA218517859709178D27859
:103770009970DA708C4AA25C1A738B4AA21851783D
:1037800059739178D2789973DA73884AA25C1A7463
:10379000864AA218517859749178D2789974DA745B
:1037A000834AA25C1A75824AA21851785975917899
:1037B000D2789975DA757F4A1833A25C1A707D4AFF
:1037C000A218517859709178D2789970DA707A4A43
:1037D000A25C1A71784AA218517859719178D278FE
:1037E0009971DA71754AA25C1A72744AA2185178FA
:1037F00059729178D2789972DA72714AA25C1A730E
:103800006F4AA218517859739178D2789973DA7304
:103810006C4A1033A25C1A706A4AA2185178597027
:103820009178D2789970DA70674AA25C1A71664A08
:10383000A218517859719178D2789971DA71634AE6
:10384000A25C1A72614AA218517859729178D278A2
:103850009972DA725E4AA25C1A735D4AA2185178B4
:1038600059739178D2789973DA735A4BE25C822358
:10387000EA54584BE2182B005178823359709178F2
:10388000D2789970DA70544BE25C8623EA54524B3A
:10389000E2182B005178863359709178D27899705C
:1038A000DA704E4BE25C8A23EA544C4BE2182B0050
:1038B00051788A3359709178D2789970DA70484B80
:1038C000E25C9623EA54464BE2182B00517896337B
:1038D00059709178D2789970DA70424BE25C9A23F1
:1038E000EA54404BE2182B0051789A335970917882
:1038F000D2789970DA703C4BE25C8E23EA543A4BF2
:10390000E2182B0051788E3359709178D2789970E3
:10391000DA70364BE25C9223EA54344B9C462B001F
:103920006444627892335A70A2789A70E278DA70BE
:103930005EE0C046B4400020B08A00201C0D0000AC
:10394000240D00002C0D0000340D00003C0D000083
:10395000FFFF0000440D00004C0D0000540D00005E
:10396000510D00005C0D0000640D00006C0D0000A6
:10397000740D00007C0D0000840D00008C0D000013
:10398000940D00009C0D0000A40D0000AC0D000083
:10399000B40D0000BC0D0000D40D0000DC0D0000D3
:1039A000C40D0000CC0D0000E40D0000EC0D000083
:1039B000F40D0000FC0D0000040E00000C0E0000D1
:1039C000140E00001C0E0000240E00002C0E00003F
:1039D000340E00003C0E0000440E00004C0E0000AF
:1039E000640E00006C0E0000540E00005C0E00001F
:1039F00070BD00230D4A2370A3506360A3600C4B7D
:103A00009E220021E0182FF0DDFB0A4842F062FE02
:103A1000C3235B01E0182BF09BFB074BE01808F079
:103A20009BFF30004CF078F99EE5C0466818000016
:103A30006C18000088400020D404000070B5144DBC
:103A400028004CF04DF9134C002804D120001249F5
:103A5000FFF700FD70BD0023104A2370A350636080
:103A6000A3600F4B9E220021E0182FF0ABFB0D4806
:103A700042F030FEC3235B01E0182BF069FB0A4BD8
:103A8000E01808F069FF28004CF046F9DEE7C04670
:103A9000B4400020B08A00201C6400206818000098
:103AA0006C18000088400020D404000030B5164A8D
:103AB0008FB01368591C1160002B07D10121134AE4
:103AC0004942116053609360D3601361104B1C68CE
:103AD000621C1A60002C01D00FB030BD38220D4995
:103AE00068462FF075FB0C4D38202C606C60AC6084
:103AF0002FF074FB04003822383469462860AC602B
:103B00002FF066FB6C60E7E7A44000208C400020AB
:103B1000A04000204C2E051058B6002080208003C5
:103B20007047C0460148024BC01A704748080B1046
:103B300000000010024B0348C01A034BC018704726
:103B400000000420002004209C5D01000148024B7D
:103B5000C01A7047000004209C5D012000B58BB0A6
:103B600068464EF029F907980BB000BD10B5040067
:103B700001200649404230F045FB054B0022002160
:103B800000201C622CF080FD30BFFDE7FFFFFF0F1F
:103B90000080054010B52CF0C5FD002811D00A4B5F
:103BA000186A0A4B984208D0094B984205D0094B35
:103BB000C3185A4253415B4218400022024B1A621A
:103BC00010BD0020FCE7C04600800540CD66D5430F
:103BD000A58477E71F1BC808F0B5D6464F46464672
:103BE000C0B5DC4D82B004006846AF6A42F016FDF5
:103BF000D94E29006846013542F014FDB542F8D18E
:103C0000002301AD019302AE29006846013542F060
:103C100009FDAE42F8D1684642F01CFD00268742FD
:103C200001D101F005F88023CC4D6846EF5842F0F1
:103C3000F5FCCB4B984629006846013542F0F2FC72
:103C40004545F8D10023019302AB984601AD290008
:103C50006846013542F0E6FCA845F8D1684642F0D6
:103C6000F9FC874201D100F055FEBE4D68462F6F2A
:103C700042F0D4FCBC4B984629006846013542F01E
:103C8000D1FC4545F8D10023019302AB984601AD24
:103C900029006846013542F0C5FCA845F8D16846C0
:103CA00042F0D8FC874201D101F0E8F8AF4B6846FA
:103CB0001B6801AD984642F0B1FC002302AF0193AE
:103CC00029006846013542F0ADFCAF42F8D1A84D5D
:103CD000A84F29006846013542F0A4FCBD42F8D146
:103CE000684642F0B7FC804500D01DE284230122E3
:103CF0001B01E254A04B0126E1189C4B1879486047
:103D00009D48225458790A72C86098790A744861AB
:103D1000D8790A76C8610825585F48629748201804
:103D200002700A25585FC862954820180270187BF7
:103D3000486394482018027093485D7B20180570F2
:103D4000924820180270188ADD8900042843C8634D
:103D50008F4820180270988A5D8A000428434864BE
:103D60008C4820180270188BDD8A00042843C86430
:103D7000894820180270988B5D8B000428434865A1
:103D8000864820180270188CDD8B00042843C86513
:103D9000834820180270988C5D8C00042843486684
:103DA000804820180270188DDD8C00042843C866F6
:103DB0007D4820180270988D5D8D00042843486767
:103DC0007A4820180270188EDD8D00042843C867D9
:103DD000774961180A7077495D8E6018998E0904D9
:103DE00029430160744961180A708D210901DD8E33
:103DF0006018198F090429430160704961180A701D
:103E00006F495D8F6018998F0904294301606D49DE
:103E100061180A708E21090160184021595ADD8FFE
:103E2000090429430160684961180A7067496018EC
:103E300042215D5A0231595A0904294301606449FB
:103E400061180A708F210901601846215D5A0231FC
:103E5000595A0904294301605E4961180A705E4994
:103E600060184A215D5A0231595A090429430160F8
:103E70005A4961180A709021090160184E215D5A53
:103E80000231595A090429430160554961180A70E1
:103E90005449601852215D5A0231595A0904294384
:103EA0000160514961180A70912109016018562179
:103EB0005D5A0231595A0904294301604B4961187E
:103EC0000A704B4960185A215D5A0231595A090447
:103ED00029430160474961180A709221090160185D
:103EE0005E215D5A0231595A090429430160424951
:103EF00061180A704149601862215D5A0231595AAD
:103F00000904294301603E4961180A70932109019F
:103F1000601866215D5A0231595A0904294301602B
:103F2000384961180A70384960186A215D5A0231AF
:103F3000595A090429430160344961180A709421CF
:103F4000090160186E215D5A0231595A090429434A
:103F500001605DE000E01F1028E01F1000E41F106A
:103F600080E41F1000E61F1070E61F1000E81F100D
:103F700004E81F109EE81F104408000064080000B9
:103F80006C080000740800007D0800007C08000038
:103F90007E080000840800008C08000094080000DF
:103FA0009C080000A4080000AC080000B408000051
:103FB000BC080000C8080000C4080000CC080000CD
:103FC000D8080000D4080000DC080000E808000061
:103FD000E4080000EC080000F8080000F408000005
:103FE000FC08000008090000040900000C0900009A
:103FF00018090000140900001C090000280900002D
:10400000240900002C0900003809000034090000D0
:104010006D4961180A706D49601872215D5A02314C
:10402000595A090429430160694961180A709521A8
:104030000901601876215D5A0231595A0904294351
:104040000160644961180A70634960187A215D5AF9
:104050000231595A090429430160604961180A7004
:104060009621090160187E215D5A0231595A0904CE
:10407000294301605A4961180A705A49601882211F
:104080005D5A0231595A09042943016056496118A1
:104090000A7097210901601886215D5A0231595A28
:1040A000090429430160514961180A705049601898
:1040B0008A215D5A0231595A0904294301604D4948
:1040C00061180A709821090160188E215D5A023129
:1040D000595A090429430160474961180A70474940
:1040E000601892215D5A0231595A0904294301602E
:1040F000434961180A7099210901601896215D5A97
:104100000231595A0904294301609C259A203D49EE
:1041100061180A70185A5B5B3B491B040343611822
:104120000B603A4BE3181A70394D68466F6E42F0D7
:1041300075FA384B984629006846013542F072FA04
:104140004545F8D10023019302AB984601AD290003
:104150006846013542F066FAA845F8D1684642F053
:1041600079FA874262D02C492C4A2D4B8A589A42C0
:1041700000D1E4E280232B4DDB006846EF5842F08B
:104180004DFA294B984629006846013542F04AFA13
:104190004545F8D10023019302AB984601AD2900B3
:1041A0006846013542F03EFAA845F8D1684642F02B
:1041B00051FA874201D100F055FF300002B0E0BC57
:1041C000BA46B146A846F0BD3C09000048090000C7
:1041D000440900004C09000058090000540900007F
:1041E0005C09000068090000640900006C09000017
:1041F00078090000740900007C09000088090000AB
:10420000840900008C09000098090000940900004E
:1042100000EC1F1064EC1F1000F01F10940600004B
:10422000EFBEADDE00F81F1000FC1F100123F94A9D
:10423000F948A354F94AA3545422815C4A1E91417F
:10424000F74AA2185170F64963541F33C35CFF2B21
:1042500001D101F067F853600123EF4993702033D7
:10426000CB5CFF2B01D101F061F8D3600123137205
:104270009A221201A3545622E749885C421E9041BB
:10428000E84AA2185070E7482354488C9370506055
:10429000E54AA3545722885C421E9041E34AA21883
:1042A0005070E24823542B33CB5CFF2B01D101F03B
:1042B00041F8012153602D23D7489170C35C1172DE
:1042C000D360DB4BE1545823C25C531E9A41D94B57
:1042D000E3185A70D74AA154427EFF2A01D101F057
:1042E0002DF85A6001229A70CB4A927EFF2A01D1A2
:1042F00001F058F8DA6001221A72C74AD27EFF2A0A
:1043000001D101F053F85A6101221A74C24A127F96
:10431000FF2A01D100F060FFDA610122BE491A765E
:10432000497F022901D800F04FFFBB4A917F5962B3
:104330000121C14BE3181970C04BE1545923D05CE3
:10434000431E9841BE4BE3185870BD482154233199
:10435000525CFF2A01D100F0C5FF5A600122AE492C
:104360009A70886A1A72D860B64BE2545A23C85CB5
:10437000431E9841B44BE3185870B348225408695F
:104380009A7058604A7BFF2A01D100F0AFFFDA60D3
:1043900001221A72A04A927BFF2A01D100F0AAFFE3
:1043A0005A6101229C491A74087E1A76D8614869BC
:1043B0005862A64BE3181A70A7231B01E2545B2333
:1043C000C85C431E9841A24BE3185870A048225481
:1043D0008A78FF2A01D100F091FF5A6001229A7079
:1043E0008D4AD278FF2A01D100F08CFFDA600122D9
:1043F0001A72984B8849E2545C23C85C431E98416A
:10440000B4231B01E3185870B420000122542E205D
:10441000085C9A705860904BE2545E23C85C431E5F
:1044200098418E4BE31858708C4822544A78FF2AE2
:1044300001D100F06BFF5A6001229A70764A127A1D
:10444000FF2A01D100F066FFDA60012272491A7278
:10445000487A1A745861887A1A76D861C87A58628C
:104460007F4820180270087BD862AB231B01E31839
:104470001A707C4BE2546023C85C431E98417A4B0F
:10448000E3185870784822540A79FF2A01D100F0C5
:1044900045FF5A6001229A705F4A5279FF2A01D182
:1044A00000F058FFDA60012249215B481A72415C32
:1044B000042901D800F07EFE472257498A5C042A6D
:1044C00001D800F06CFE482253498A5C042A01D8C6
:1044D00000F060FE0122654B4F48E2545523C35C57
:1044E000591E8B4162496118CB708A70C37F022BC1
:1044F00001D800F04AFE01205E4B4749E0545F239B
:10450000CA5C531E9A415C4BE3185A705A4AA05435
:104510000A78FF2A01D100F021FF5A6001229A7027
:104520003D4AD279FF2A01D100F00CFF0121DA6067
:10453000394A19729079197458614531525CFF2AD1
:1045400001D100F003FF01212F20DA61324A1976F0
:10455000105C451EA841494D65192870484820182F
:104560000170508E5862474820180170908ED862B2
:10457000454820180170D08E5863444820180170B7
:10458000108FD8634248201801703931525CFF2ADD
:1045900001D100F0E7FE01215A643E4AA2181170D1
:1045A0003B221D498A5CFF2A01D100F0DFFE012178
:1045B000DA64394AA21811703C2217498A5CFF2A32
:1045C00001D100F0D7FE01215A65344AA2181170BA
:1045D0003D2211498A5CFF2A01D100F0CFFEDA6545
:1045E00001222F4961180A700B49C88F58662D485F
:1045F000201802704020085AD8662B4820180270F4
:104600004220085A58672948201802704420085A46
:10461000D8674DE09C09000000EC1F10B1090000B4
:10462000B4090000A4090000140B0000180B0000DE
:10463000E40A0000E80A00000A0B0000280B000052
:104640002C0B0000B80A0000BC0A0000DC0A0000C5
:10465000740A00003C0B0000840A0000880A000075
:10466000A80A00003012000034120000AC0900005B
:10467000AD090000E8090000EC0900000D0A000087
:104680000C0A00000E0A0000140A00001C0A0000B8
:10469000240A00002C0A0000340A00003C0A000032
:1046A000440A00004C0A0000540A00005C0A0000A2
:1046B000694BE3181A703023CB5C012B05D867498E
:1046C00061180B70664BE3181A700121654B664A3E
:1046D000E1546123D05C431E9841644BE318587049
:1046E00062482154D06C997058604931525CFF2A5D
:1046F00001D100F047FEDA6001225B491A724A32AA
:104700008A5CFF2A01D100F041FE5A61012256491C
:104710001A74086D1A76D861554B0126E2545D2350
:10472000CB5C591E8B41534961184B70514B524918
:10473000E254524A524B8A589A4200D01AE5012557
:10474000504B4C4AE5544A4BA718E5541023BB8004
:10475000B52380261B011022E0182EF039FD4A4BAC
:10476000760032003E834949BD70E0182EF030FDDE
:10477000474BBD75E3181E80464B32004649E01892
:104780002EF026FD0422454B4549E3181D70454B8C
:104790008027E3181A80444BE0182EF019FD434B94
:1047A0003200E3181D70424B4249E3181E80424B11
:1047B000E0182EF00DFDD7231B01E3181D703F4BB1
:1047C0008022E3181F803E4B3E49E0182EF000FD8A
:1047D0003D4B8022E3181D703C4B3D49E3181F8080
:1047E0003C4BE0182EF0F4FC3B4B8022E3181D708C
:1047F0003A4B3B49E3181F80F8231B01E0182EF0C9
:10480000E7FC384B8022E3181D70374B3749E3181B
:104810001F80374BE0182EF0DBFC80235B01E31890
:104820001D70344B8022E3181F80334B3349E0184E
:104830002EF0CEFC324B3200E3181D70314B324962
:10484000E3181E80314BFF3EE0182EF0C1FC304BC8
:10485000E3181D708EE4C046640A00006D0A000073
:104860006C0A00000C12000000EC1F101012000077
:10487000480B00004A0B000000F01F1094060000D7
:10488000EFBEADDE9C090000640B000010F01F10AD
:10489000660C0000680C000010F11F10640C000092
:1048A00010F21F106A0D00006C0D0000680D000072
:1048B000720D000014F21F10740D0000760E00003F
:1048C000780E000014F31F10740E0000FA0E0000A2
:1048D00094F31F10FC0E0000F80E00007E0F000085
:1048E00014F41F107C0F00000210000094F41F103D
:1048F00004100000861000008810000014F51F103E
:10490000841000000A11000094F51F100C11000023
:1049100008110000C22301225B00E254B94B5A780F
:10492000FF2A01D100F036FD23008933FF335A609E
:10493000C42201215200A154B24A9278FF2A01D127
:1049400000F02CFDDA6001221A72AE4AD278FF2AFA
:1049500001D100F045FC5A6101221A74A94A12796A
:10496000FF2A01D100F040FCDA6101221A76A54A43
:104970005279FF2A01D100F03BFC5A62220001214A
:10498000A932FF3211709F4A9279FF2A01D100F0BB
:1049900033FCDA6222000121B132FF321170994AF0
:1049A000D279FF2A01D100F02BFC5A6322000121A9
:1049B000B932FF321170934A127AFF2A01D100F006
:1049C00023FCDA6322000121C132FF3211708D4ACB
:1049D000527AFF2A01D100F01BFC5A642200012107
:1049E000C932FF321170874A927AFF2A01D100F052
:1049F00013FCDA6422000121D132FF321170814AA6
:104A0000D27AFF2A01D100F00BFC5A652200012165
:104A1000D932FF3211707B4A127BFF2A01D100F09C
:104A200003FCDA6522000121E132FF321170754A80
:104A3000527BFF2A01D100F0FBFB5A6622000121C4
:104A4000E932FF3211706F4A927BFF2A01D100F0E8
:104A500035FCDA6622000121F132FF321170694A19
:104A6000D27BFF2A01D100F02DFC5A6722000121E0
:104A7000F932FF321170634A127CFF2A01D100F033
:104A800025FCDA67802301229B00E3181A705D4B36
:104A90005B7CFF2B01D100F01DFC83229200A21849
:104AA0001360822301229B00E3181A70554B9B7CF4
:104AB000FF2B01D100F012FC85229200A218136096
:104AC000842301229B00E3181A70AD239B00E2545B
:104AD00028234C49C85CAE239B00E3185870AE20D5
:104AE00080002254086A9A705860087F1A72D86051
:104AF000487F1A745861C86A1A76D861486A586241
:104B0000B6239B00E3181A70CB7C0C2B00D82FE344
:104B10003C4B1B7D102B00D81EE33B4B19780C2916
:104B200000D902E3BB22BB2501209200A218AD00F0
:104B3000517060555D68107195609D6810731561C6
:104B4000DD681B699561107513621077C5239B00A2
:104B5000C522E318597001219200A1542B494A68DB
:104B600088689A6001221861C86809691A711A7305
:104B700098611A7519621A77224B5B7D032B06D850
:104B8000234961180B70CE239B00E3181A701D4B4C
:104B90009B7D052B06D81F4AA218137001221E4BBD
:104BA000E3181A70D023174A9B009169E318196023
:104BB000CF2101233020890061180B701749105C48
:104BC00061180860E9213120C90061180B7014498F
:104BD000105C61180860EA21C90061180B7032216D
:104BE000505C1049012661180870EB21C90061185A
:104BF0000B70516B0C4AA21811600C4AA21813706A
:104C0000FFF733F800E41F1038E41F104CE41F10C6
:104C1000390300003B0300003A0300004C0700008A
:104C200054070000590700005C0700005A07000005
:104C3000212201232100A3548F4A22311278042A11
:104C400000D869E28C4B5B78022B00D85BE28A4B80
:104C50009B78042B00D852E2874AD378CB7101238A
:104C60008B7110790B7248728821890063545079D6
:104C700004316118486089208000235490790B72B8
:104C8000C860D0790B744861107A0B76C861507A8D
:104C900048629120800020180370907AC8629320A7
:104CA000800020180370D07A486395208000201877
:104CB0000370107BC8639720800020180370507B1E
:104CC00048649920800020180370907BC8649B2062
:104CD000800020180370D07B48659D20800020183C
:104CE0000370107CC8659F20800020180370507CE2
:104CF0004866A120800020180370907CC866A3201D
:104D0000800020180370D07C4867A5208000201800
:104D10000370107DC867A721890061180B70AA2154
:104D2000507D890061180860A921890061180B7005
:104D3000AC21907D890061180860AB218900611861
:104D40000B7032216354D17DC020E16321008000CB
:104D500034310B7160648B73127E0C2A00D8CBE166
:104D6000454901224B7EA365230054331A70C023AA
:104D70009B00236623005E331A708B7E0C2B00D8B9
:104D8000B3E13D490122CB7E6367230070331A7083
:104D9000C0239B00E36723007A331A700B7F0C2B30
:104DA00000D89BE190233449C0204A7F8000E25024
:104DB000230001228C331A709823E050230096338D
:104DC0001A708B7F0C2B00D881E1AC232A499020EC
:104DD000CA7F4001E25023000122A8331A70B42395
:104DE000E0502300B2331A702023CB5C0C2B00D888
:104DF00066E1212320499020CA5CA733E2502300BA
:104E00000122C4331A70D0234001E0502300CE3376
:104E10001A702223CB5C0C2B00D84AE123231649BD
:104E20009020CA5CC133E25023000122E0331A70A3
:104E3000EC234001E0502300EA331A702423CB5CBA
:104E40000C2B00D82EE125230B499020CA5CDB33C4
:104E5000E25023000122FC331A70842340015B00DE
:104E6000E050E31DFF331A702623CB5C0C2B00D8D7
:104E70000FE10126FEF7D7FE00E01F10EE4B1F7872
:104E8000002F01D1FEF712FFEC2201215B68D20056
:104E9000A1541D2B01D901235B42E84AA1184B60A4
:104EA0000123A354E44A127A032A01D84A720B72EE
:104EB000E14B5B7A0C2B02D8CB7201238B72DE4B59
:104EC0009A7A0A6101220A73D87A0A758861187B76
:104ED0000A77086218698862F120C0002018027001
:104EE00058690863F220C00020180270986988632E
:104EF000F320C00020180270D8690864F420C000B4
:104F000020180270186A8864F520C000201802700A
:104F1000586A0865F620C00020180270986A8865F3
:104F2000F720C00020180270D86A0866F820C00078
:104F300020180270186B8866F920C00020180270D3
:104F4000586B0867FA20C00020180270986B8867B9
:104F5000FB21C90061180A70B949D86B6118086053
:104F6000FC21C90061180A70B649186C6118086004
:104F7000FD21C90061180A70B349586C61180860B6
:104F8000FE21C90061180A70B049986C6118086068
:104F9000FF21C90061180A70AD49D86C611808601A
:104FA0008021090161180A70AA49186D611808600A
:104FB000A949586D61180A70A8499B6D611808606D
:104FC0008121090161185BB20A70591C022905D8B8
:104FD000A34961180B70A34BE3181A700126964B76
:104FE000A14AD96DA2181160A04A196EA2181670B4
:104FF0009F4AA218116082221201A21816709D4ABF
:10500000596EA21811609C4AA21816709A6E9B4B9A
:10501000E3181A6083231B01E3181E70984B98460F
:10502000984BA044187899462DF096FF2DF0E8FF94
:1050300003049A464B4658782DF08EFF2DF0E0FF82
:10504000534605021D434B4698782DF085FF2DF001
:10505000D7FF434605431D608B4BE3181E703E008F
:10506000FEF724FEAD23012580229B00E554874BEB
:10507000D200E3181A80D2239B00E01884492EF056
:10508000A7F8D1239B009C46644401262570FFF7B6
:1050900094F8A11DFF310B70631DFF3301261A70B8
:1050A000FEF7C1FD2100E9310B702300E8331A70CF
:1050B000C9E62100CD310B702300CC331A70ADE668
:1050C0002100B1310B702300B0331A7091E621003A
:1050D00095310B70230094331A7076E621007931F4
:1050E0000B70230078331A705CE621005D310B7081
:1050F00023005C331A7044E64A730B7330E64B713D
:1051000001230B71A8E5CB7001238B70614B9B7859
:10511000042B00D9A0E5F2E74A702222A3545D4B8C
:105120005B78022B00D992E5EDE7BB229D689200E7
:10513000A21858681561DD681B6990601362C52369
:1051400001209B0010711073956110751077E318A2
:10515000102900D902E5F9E44F4AA2181370012280
:105160004E4BE3181A704E4B19780C29DDD8D9E450
:105170004C4961180B70B8239B00E3181A704A4B16
:105180001B7D102B00D9C8E4E6E74B70474BE25477
:10519000FFF7B1F95A7501221A75FFF79BF9DA7416
:1051A00001229A74482242498A5C042A01D9FFF7F5
:1051B00091F9EFE71A74472259743D498A5C042A31
:1051C00001D9FFF780F9EAE73A48201801703A4917
:1051D00061180A70FFF7A9F8013AFF3AFFF79CF847
:1051E000013AFF3AFFF7B7FB013AFF3AFFF7BCFB82
:1051F000013AFF3AFFF7C1FB013AFF3AFFF7C9FB5B
:10520000013AFF3AFFF7D1FB013AFF3AFFF7D9FB2A
:10521000013AFF3AFFF7E1FB013AFF3AFFF7E9FBFA
:10522000013AFF3AFFF7F1FB013AFF3AFFF7F9FBCA
:10523000013AFF3AFFF701FC00E61F106407000087
:10524000E4070000EC070000F4070000FC07000082
:10525000040800000C080000080800001408000002
:1052600019080000180800001C0800001A080000B7
:10527000240800002C080000280800003408000062
:105280003C0800006CE61F103808000046030000D0
:1052900000F81F1000E01F10E3020000E20200000F
:1052A00038E41F10E102000000E41F10AD09000007
:1052B00000EC1F10090B0000080B0000013AFF3A38
:1052C000FFF7C7FB013AFF3AFFF7CFFB013AFF3A7E
:1052D000FFF7D7FB013BFF3BFFF7DFFB013BFF3B4A
:1052E000FFF7EAFB013AFF3AFFF737F8013AFF3AD6
:1052F000FFF74DF8013AFF3AFFF752F8013AFF3A4B
:10530000FFF76BF8013AFF3AFFF770F8013AFF3AFE
:10531000FFF791F8013AFF3AFFF796F8013AFF3AA2
:10532000FFF7B7F8013BFF3BFEF795FF013BFF3B63
:10533000FEF79BFF013BFF3BFEF7BBFF013AFF3A45
:10534000FEF7CFFF013AFF3AFFF7F0F8013AFF3AD4
:10535000FFF7F9F8013AFF3AFFF7A4F8013AFF3AEC
:10536000FFF7DBF8013AFF3AFFF715F9013AFF3A88
:10537000FFF71DF9013AFF3AFFF725F9013AFF3A25
:10538000FFF72DF9013AFF3AFFF7B5F9013AFF3A75
:10539000FFF7BBF9013AFF3AFFF7C6FA013AFF3AC5
:1053A000FFF7D0FA013AFF3AFEF7A4FF013AFF3ABD
:1053B000FEF7A9FF30B5164A8FB01368591C11606B
:1053C000002B07D10121134A4942116053609360B9
:1053D000D3601361104B1C68621C1A60002C01D052
:1053E0000FB030BD38220D4968462DF0F1FE0C4D4E
:1053F00038202C606C60AC602DF0F0FE0400382288
:10540000383469462860AC602DF0E2FE6C60E7E756
:10541000A44000208C400020A0400020842E0510D5
:1054200058B600200C22002382425B41D8B270475C
:105430001022002382425B41D8B2704770B504004D
:1054400008000D004DF054F86168064B02005B1A2D
:10545000984204D8290020004BF0EAF870BD0248B9
:105460004AF008FEFFFFFF3FBC2E0510F0B5C64610
:105470000F0000B5002823D00368984600291FD0EC
:10548000002B19D008004DF033F84346DD680600C4
:10549000002D0FD028004DF02BF8864213D0434644
:1054A0000A229B5E002B0BD01B0198444346DD680B
:1054B000002DEFD1002EF2D1404680BCB846F0BDA1
:1054C00000239846F8E7002EF6D0002302E00133CF
:1054D0009E42F1D0FC5CEA5C9442F8D0DFE7C04623
:1054E000F0B557464E46DE464546E0B5CB17CC18DC
:1054F0008246BDB0CE0F5C40092C00D898E0632CEA
:1055000000D8A3E0FA239B009C4200D2A1E0564BB6
:105510009C4200D8A0E0554B05219C4231D9544B08
:105520009C4200D89BE0534B062507219C4229D979
:10553000514B9C4200D878E0504B9C4220D9092521
:10554000691C03AB9B462D2205AB58468919019374
:1055500003934AF0F1FE039BC9229B19009309AB08
:105560001800474998462DF033FE632C1ED8434659
:1055700064001B195B78009A537043461C5D36E04B
:1055800009214D1E03AB9B462D2205AB58468919B8
:10559000019303934AF0D0FE039BC9229B19009309
:1055A00009AB1800364998462DF012FE009B013DCC
:1055B0009C462D4B65449946200064212CF0A0FDAB
:1055C00020004E0064212CF09BFD43469B195B7824
:1055D00027006B7043469B5D04002B70023D4F45D6
:1055E000EAD8FA239B009F42C1D23034E4B2009B38
:1055F0001C705B465A6853465868224B03991B1A25
:105600009A422ED850464BF013F80398019B9842CB
:1056100004D05B46996801312DF0ECFD3DB0F0BC43
:10562000BB46B246A946A046F0BD07250821A9E71A
:1056300003AB9B462D2205AB5846711C0193039387
:105640004AF07AFE039B9B190093CEE702210125C5
:1056500077E70225032195E70325042192E7052535
:105660006EE709484AF006FD0F2700009F860100FB
:105670003F420F007F969800FFE0F505FFC99A3B77
:10568000D42E0510FFFFFF3FBC2E0510F0B5574686
:10569000DE464E464546E0B582460C00BDB00929BF
:1056A00000D892E0632900D89CE0FA239B0099423D
:1056B00000D299E0524B994200D897E0514B994261
:1056C00000D895E0504B9C4200D893E04F4B072107
:1056D0009C4227D94E4B9C4223D94E4B09219C42D8
:1056E00020D9013103AB9B46002205AB58460193FC
:1056F00003934AF021FE039BC92200935B465E6838
:1057000009AB1800444998462DF062FD632C1DD862
:10571000434664001B195B78009A537043461C5D36
:1057200035E0082103AB9B46002205AB58460193A8
:1057300003934AF001FE039BC92200935B465E6817
:1057400009AB1800344998462DF042FD009B023EFB
:105750009C462B4B66449946200064212CF0D0FCDB
:1057600020004D0064212CF0CBFC43465B195B7894
:105770002700737043465B5D04003370023E4F4563
:10578000EAD8FA239B009F42C2D23034E4B2009B95
:105790001C705B465A6853465868204B03991B1A85
:1057A0009A4229D850464AF043FF0398019B9842F9
:1057B00004D05B46996801312DF01CFD3DB0F0BC72
:1057C000BB46B246A946A046F0BD03AB9B460022AD
:1057D00005AB01215846019303934AF0ADFD039BAD
:1057E0000093D2E702217DE703219BE7042199E79B
:1057F000052197E7052174E709484AF03BFCC046BC
:105800000F2700009F8601003F420F007F969800FF
:10581000FFE0F505FFC99A3BD42E0510FFFFFF3FBF
:10582000BC2E0510F0B5C64600B54368604D0400B7
:105830000E0082B0EB1A012B00D8B6E00927022235
:105840005C494AF0F5FE05236168002220000097BC
:105850004AF002FE6368EB1A092B00D8A5E00A2281
:10586000554920004AF0E4FE20007168FFF738FE39
:105870006368EB1A012B00D897E0504B0222190005
:10588000200098464AF0D4FE0523616800222000DB
:1058900000974AF0E1FD6368EB1A092B00D884E019
:1058A0000A22474920004AF0C3FE2000F168FFF7B2
:1058B00017FE6368EB1A012B00D876E002224146FE
:1058C00020004AF0B5FE0523616800222000009701
:1058D0004AF0C2FD6368EB1A0F2B66D910223949D2
:1058E00020004AF0A5FE20007169FFF7F9FD63680A
:1058F000EB1A012B59D90222414620004AF098FEAA
:10590000052361680022200000974AF0A5FD636826
:10591000ED1A102D49D9270011222B4920004AF0F9
:1059200087FEF1692000FFF7DBFD66682368083712
:10593000751CBB4237D0A26895421ED80A229A55E0
:105940000022236865605A5509236168200000938E
:10595000053B4AF081FD66682368751CBB4220D078
:10596000A268954213D87D229A550022236865606B
:105970005A5502B080BCB846F0BD01230022009306
:105980003100002320004AF0FBFC2368D6E7012306
:10599000002200933100002320004AF0F1FC23682C
:1059A000E1E70F22DDE70F22C6E708484AF062FB75
:1059B000FFFFFF3FA02F0510A42F0510B02F0510EB
:1059C000B42F0510C02F0510D42F0510BC2E0510C4
:1059D000F0B5C64600B54368604D04000E0082B0C5
:1059E000EB1A012B00D8B6E0092702225C494AF0E5
:1059F0001FFE032361680022200000974AF02CFD5F
:105A00006368EB1A0B2B00D8A5E00C225549200047
:105A10004AF00EFE20007168FFF738FE6368EB1A4B
:105A2000012B00D897E0504B022219002000984625
:105A30004AF0FEFD032361680022200000974AF02F
:105A40000BFD6368EB1A092B00D884E00A22474952
:105A500020004AF0EDFD2000717AFFF717FE636821
:105A6000EB1A012B00D876E00222414620004AF0D2
:105A7000DFFD032361680022200000974AF0ECFC60
:105A80006368EB1A0E2B66D90F22394920004AF0C1
:105A9000CFFD2000F168FFF7F9FD6368EB1A012BD9
:105AA00059D90222414620004AF0C2FD0323616811
:105AB0000022200000974AF0CFFC6368ED1A0A2DFF
:105AC00049D927000B222B4920004AF0B1FD71690A
:105AD0002000FFF7DBFD666823680837751CBB42B2
